:100000000C9422010C944C010C944C010C944C0166
:100010000C944C010C944C010C944C010C944C012C
:100020000C944C010C9465080C9465080C946508BC
:100030000C944C010C944C010C944C010C944C010C
:100040000C944C010C9437080C944C010C944C010A
:100050000C944C010C944C010C944C010C9403072F
:100060000C944C010C9477070C944D070C944C01A4
:100070000C944C010C944C010C944C010C944C01CC
:100080000C9409080C944C010C944C010C944C01F8
:100090000C944C010C944C010C944C010C94E10810
:1000A0000C944C010C944C010C94DB070C944C0107
:1000B0000C944C010C944C010C944C010C94AD0725
:1000C0000C944C010C944C010C944C010C944C017C
:1000D0000C944C010C944C010C944C010C944C016C
:1000E0000C944C014E414E494E495459494E46CD0F
:1000F000CCCC3D0AD7233C17B7D13877CC2B3295DF
:1001000095E6241FB14F0A000020410000C84200BC
:10011000401C4620BCBE4CCA1B0E5AAEC59D740086
:10012000000A0B02090C0D0E080703040100000071
:1001300000000000000000000000000000000000BF
:10014000000000000000000000000012111000007C
:10015000000000000000000000000000000000009F
:100160000000000000000020002300260029002CD1
:10017000002F003200000100000301060109010008
:10018000002100240027002A002D00300033000148
:10019000010000040107010A0100002200250028D7
:1001A000002B002E00310034000201000005010880
:1001B000010B0105050505070508080808020202EC
:1001C000020A0A08080404040401010101010101F2
:1001D000010303030303030303040707070C0C0CC9
:1001E0000C0C0C0C0C0202020206060606060606A1
:1001F000060B0B0B0B0B0B0B0B010210202008083E
:100200001020401020408002010201080402010178
:100210000204081020408080402010080402018061
:1002200004020180402010080402010804020101B8
:1002300002040810204080010204081020408000C1
:10024000010AAE0C11241FBECFEFD1E2DEBFCDBF3D
:1002500012E0A0E0B2E0EEEFF5E200E00BBF02C07A
:1002600007900D92A634B107D9F724E0A6E4B2E0D6
:1002700001C01D92A636B207E1F711E0C1E2D1E05C
:1002800004C02197FE010E94B00FC032D107C9F708
:100290000E94EA0A0C94F2120C940000282F30E01D
:1002A000F901E15EFE4F9491F901E750FE4F849110
:1002B0002D543E4FF9012491222309F433C0992390
:1002C00001F191509231E8F4E92FF0E0E659FE4F48
:1002D0000C94B00F9B019F017C0193019701810158
:1002E000A201A801AC01B201B601BA01C001C4016A
:1002F0008101C801CE01D201909180009F77909337
:100300008000E22FF0E0EE0FFF1FE756FE4FA591B1
:10031000B4919FB7F894EC91611148C080958E23F9
:100320008C939FBF0895909180009F7DE8CF90911E
:100330008000977FE4CF94B59F7794BDE2CF94B5CA
:100340009F7DFBCF9091B0009F779093B000D9CF65
:100350009091B0009F7DF9CF909190009F779093FE
:100360009000CFCF909190009F7DF9CF9091900019
:10037000977FF5CF9091A0009F779093A000C1CF79
:100380009091A0009F7DF9CF9091A000977FF5CF2D
:10039000909120019F7790932001B3CF90912001FD
:1003A0009F7DF9CF90912001977FF5CF8E2BB8CF0D
:1003B000AF92BF92CF92DF92EF92FF920F931F9373
:1003C000CF93DF936C017B018B01040F151FEB01B1
:1003D0005E01AE18BF08C017D10759F06991D60168
:1003E000ED91FC910190F081E02DC6010995892BDA
:1003F00079F7C501DF91CF911F910F91FF90EF9099
:10040000DF90CF90BF90AF900895FC01538D448D45
:10041000252F30E0842F90E0821B930B541710F0AF
:10042000CF96089501970895FC01918D828D9817BC
:1004300061F0A28DAE0FBF2FB11D5D968C91928D94
:100440009F5F9F73928F90E008958FEF9FEF0895C5
:10045000FC01918D828D981731F0828DE80FF11D8E
:10046000858D90E008958FEF9FEF0895FC01918DA9
:10047000228D892F90E0805C9F4F821B91098F73A2
:100480009927089584EA93E00E94360221E0892B9F
:1004900009F420E0822F0895FC01A48DA80FB92F44
:1004A000B11DA35ABF4F2C91848D90E001968F739C
:1004B0009927848FA689B7892C93A089B1898C91BB
:1004C000837080648C93938D848D981306C002880A
:1004D000F389E02D80818F7D80830895EF92FF92D4
:1004E0000F931F93CF93DF93EC0181E0888F9B8D57
:1004F0008C8D98131AC0E889F989808185FF15C011
:100500009FB7F894EE89FF896083E889F989808133
:100510008370806480839FBF81E090E0DF91CF9102
:100520001F910F91FF90EF900895F62E0B8D10E024
:100530000F5F1F4F0F731127E02E8C8D8E110CC093
:100540000FB607FCFACFE889F989808185FFF5CFDE
:10055000CE010E944C02F1CFEB8DEC0FFD2FF11D6F
:10056000E35AFF4FF0829FB7F8940B8FEA89FB891B
:1005700080818062CFCFCF93DF93EC01888D882379
:10058000B9F0AA89BB89E889F9898C9185FD03C0F6
:10059000808186FD0DC00FB607FCF7CF8C9185FFDB
:1005A000F2CF808185FFEDCFCE010E944C02E9CFD2
:1005B000DF91CF91089580E090E0892B29F00E948F
:1005C000420281110E94000080E090E0892B49F0F6
:1005D00080E090E0892B29F00E94000081110E94A8
:1005E000000080E090E0892B49F080E090E0892BCA
:1005F00029F00E94000081110E94000080E090E03C
:10060000892B49F080E090E0892B29F00E940000BE
:1006100081110C9400000895CF93DF93DB01EA0170
:10062000FC01E557FC4F40815CE0589F9001599FC9
:10063000300D112447FF1CC011961C921E92808120
:100640008F5F80838081A901480F511D87FD5A95D6
:1006500057FF03C080818C30ACF08D919C91119735
:10066000049680349C4938F18D919C91049625C064
:100670008081A901480F511D87FD5A9557FFDFCF93
:100680008081DDCF8D919C914081240F311D47FDEC
:100690003A95D901AA0FBB1FA20FB31FA550BD4F9A
:1006A00011962D913C91820F931F998388838081AD
:1006B000DF91CF91089580E49CE9998388838FEF3F
:1006C0008083F6CF2091F9023091FA02281739077A
:1006D00071F49091F8028091F702981741F0E0913F
:1006E000F802F0E0E954FD4F808190E008958FEF2B
:1006F0009FEF08950895EF92FF920F931F93CF936A
:10070000DF93DC015C96ED90FC905D97E114F104C1
:1007100079F481E090E013969C938E93129790E089
:1007200080E0DF91CF911F910F91FF90EF9008959E
:100730005196ED91FC91529750968C915097982F2D
:1007400090950FB75E962C915E97122F127021FD37
:100750006095F8942081112319F1282B2083E7015B
:100760002197F1F728E0462F50E0308160FF1AC052
:10077000382B3083E7012197F1F7BA01759567951A
:10078000215089F7112381F08081892380830FBF55
:100790005C968D919C910197F1F781E090E0C1CF3B
:1007A0002923DCCF3923E5CF9081892BEFCF20910E
:1007B000F9023091FA022817390761F48091F702A3
:1007C0002091F80290E0805C9F4F821B91098F730B
:1007D0009927089590E080E008952091F9023091E2
:1007E000FA0228173907B9F49091F8028091F702BC
:1007F000981789F0E091F802F0E0E954FD4F80810C
:100800002091F80230E02F5F3F4F2F733327209362
:10081000F80290E008958FEF9FEF08952FB7F894B6
:100820008091A0039091A103A091A203B091A30392
:100830002FBF8093490490934A04A0934B04B09334
:100840004C0481E494E00E94ED0397FF26C02FB78B
:10085000F8948091A0039091A103A091A203B0917C
:10086000A3032FBF4091490450914A0460914B0467
:1008700070914C04841B950BA60BB70B409145045B
:10088000509146046091470470914804841795077D
:10089000A607B707B0F28FEF9FEF089520916D0282
:1008A000260F3327331F21323105ECF420919102BA
:1008B000FC0190E080E0243069F082E00895A0918E
:1008C0006D022191AC01435B5D4FA40FB52FB11DAB
:1008D0002C930196861798F380916D02680F6093B0
:1008E0006D0280E0089581E008958FEF9FEF0895F5
:1008F0008FEF9FEF08958091460290E0919581954A
:1009000091090895CF93DF93CB01EA01642F0E94F0
:100910004E04CE01DF91CF910895CF93DF931F92C4
:10092000CDB7DEB7698361E0CE0101960E944E0427
:1009300081E090E00F90DF91CF91089590E080E00A
:100940000895FC0101900020E9F73197AF01481BA1
:10095000590BBC0184EA93E00C94D8018F929F92CA
:10096000AF92BF920F931F93CF93DF93CDB7DEB7B4
:10097000A1970FB6F894DEBF0FBECDBF19A24230CB
:1009800008F44AE08E010F5D1F4F842E912CB12C8C
:10099000A12CA50194010E947F0FE62FB901CA0185
:1009A000EA30F4F4E05DD801EE938D01232B242B83
:1009B000252B79F790E080E0109719F0CD010E9487
:1009C000A104A1960FB6F894DEBF0FBECDBFDF9194
:1009D000CF911F910F91BF90AF909F908F900895EE
:1009E000E95CE1CF4F925F926F927F928F929F92DC
:1009F000AF92BF92CF92DF92EF92FF920F931F932D
:100A0000CF936B017C01742EAC019B010E94CC1032
:100A1000882399F08AE292E0CF911F910F91FF9085
:100A2000EF90DF90CF90BF90AF909F908F907F908E
:100A30006F905F904F900C94A10446015701E89489
:100A4000B7F82FEF3FEF4FE75FE7C501B4010E9412
:100A5000CC1081110DC02FEF3FEF4FE75FE7C501CD
:100A6000B4010E944D0E18161CF48EE292E0D4CF11
:100A70002FEF3FEF4FE75FE4C701B6010E94C710B9
:100A800018161CF482E392E0C7CF2FEF3FEF4FE739
:100A90005FECC701B6010E944D0E87FDF3CF20E049
:100AA00030E0A901C701B6010E944D0E10E000E040
:100AB00087FF0AC06DE284EA93E00E946E028C0117
:100AC000F7FAF094F7F8F094C0E060E070E080E0AE
:100AD0009FE37C1641F020E030E040E251E40E94C8
:100AE0002610CF5FF6CFA70196010E94BA0F2B0107
:100AF0003C010E9498104B015C014AE00E94AE0448
:100B00007C01E00EF11ECC23C1F1C501B4010E94AD
:100B1000520E9B01AC01C301B2010E94B90F4B01FF
:100B20005C016EE284EA93E00E946E02E80EF91E18
:100B3000C15018F120E030E040E251E4C501B401B9
:100B40000E94B30E2B013C010E9498104B01B12C66
:100B5000A12C4AE0C501B4010E94AE04E80EF91EC2
:100B6000C501B4010E94520E9B01AC01C301B20148
:100B70000E94B90F4B015C01DBCFC701CF911F91E0
:100B80000F91FF90EF90DF90CF90BF90AF909F902C
:100B90008F907F906F905F904F9008950F931F9369
:100BA000CF93DF93EC0188819981009759F02A81D6
:100BB0003B812617370730F081E0DF91CF911F91FD
:100BC0000F9108958B016F5F7F4F0E94F611009780
:100BD00059F0998388831B830A832C813D81232BC1
:100BE00059F7FC011082E8CF80E0E7CFCF93DF9385
:100BF000EC0188819981009711F00E946D11198292
:100C000018821D821C821B821A82DF91CF91089567
:100C1000CF93DF93EC0170E060E00E94CE0581117C
:100C200005C0CE01DF91CF910C94F6051D821C8288
:100C300062E472E088819981DF91CF910C94EB128C
:100C40009F92AF92BF92CF92DF92EF92FF920F935B
:100C50001F93CF93DF93EC016B015A0179012417A5
:100C6000350720F48B2D5901E42EF82E19821882B5
:100C70001B821A821D821C82CE010E940806D601A8
:100C800014960D911C91A016B10658F5E016F106C8
:100C900008F48701D601ED91FC911197E00FF11F47
:100CA00090801082ED90FC90EA0CFB1CE114F104A2
:100CB00071F0F70101900020E9F731975F01AE185C
:100CC000BF08B501CE010E94CE05811117C0CE012B
:100CD0000E94F605F60180819181080F191FD80145
:100CE0009C92CE01DF91CF911F910F91FF90EF90D9
:100CF000DF90CF90BF90AF909F900895BD82AC825F
:100D0000B701888199810E94EB12E4CFFC018081B8
:100D10009181009711F00C946D1108951F93CF935A
:100D2000DF9385ED8093BC008091490290914A0247
:100D3000A0914B02B0914C020796A11DB11D23E07A
:100D4000B695A795979587952A95D1F72091BC00E0
:100D500024FD03C01092910252C04091490250916B
:100D60004A0260914B0270914C02452B462B472B57
:100D700069F30097A105B10541F02AE22A95F1F740
:100D800000C00197A109B109E1CF80914802C1E0FB
:100D9000C0934702882399F1D091B8001091BA000E
:100DA0008091BC008A7B8093BC0060E084E10E945B
:100DB0004E0160E085E10E944E0110929102C093C5
:100DC00093021092920261E084E10E944E0161E080
:100DD00085E10E944E018091B9008E7F8093B90019
:100DE0008091B9008D7F8093B90088E48093B8002A
:100DF00085E48093BC001093BA00D093B800DF91D3
:100E0000CF911F9108951F920F920FB60F92112448
:100E10002F933F938F939F93AF93BF938091A003A2
:100E20009091A103A091A203B091A30330919F03DD
:100E300023E0230F2D3758F50196A11DB11D2093F6
:100E40009F038093A0039093A103A093A203B09368
:100E5000A30380919B0390919C03A0919D03B0916B
:100E60009E030196A11DB11D80939B0390939C034B
:100E7000A0939D03B0939E03BF91AF919F918F91DB
:100E80003F912F910F900FBE0F901F90189526E85D
:100E9000230F0296A11DB11DD2CF1F920F920FB644
:100EA0000F9211240BB60F922F933F934F935F93A2
:100EB0006F937F938F939F93AF93BF93EF93FF9322
:100EC00084EA93E00E944C02FF91EF91BF91AF91B1
:100ED0009F918F917F916F915F914F913F912F9152
:100EE0000F900BBE0F900FBE0F901F9018951F9282
:100EF0000F920FB60F9211240BB60F922F938F9370
:100F00009F93EF93FF93E091B403F091B503808139
:100F1000E091BA03F091BB0382FD1DC090818091E6
:100F2000BD038F5F8F732091BE03821741F0E09164
:100F3000BD03F0E0EC55FC4F958F8093BD03FF910E
:100F4000EF919F918F912F910F900BBE0F900FBE3D
:100F50000F901F9018958081F2CF1F920F920FB6BD
:100F60000F9211240BB60F922F933F934F935F93E1
:100F70006F937F938F939F93AF93BF93EF93FF9361
:100F800048E251E064E271E090E080E00E940C03EE
:100F9000FF91EF91BF91AF919F918F917F916F9151
:100FA0005F914F913F912F910F900BBE0F900FBE0D
:100FB0000F901F9018951F920F920FB60F92112449
:100FC0000BB60F922F933F934F935F936F937F9343
:100FD0008F939F93AF93BF93EF93FF9348EA50E0B3
:100FE00064EA70E083E090E00E940C03FF91EF91CF
:100FF000BF91AF919F918F917F916F915F914F9131
:101000003F912F910F900BBE0F900FBE0F901F902E
:1010100018951F920F920FB60F9211240BB60F92D4
:101020002F933F934F935F936F937F938F939F93F0
:10103000AF93BF93EF93FF9348E950E064E970E00A
:1010400082E090E00E940C03FF91EF91BF91AF917D
:101050009F918F917F916F915F914F913F912F91D0
:101060000F900BBE0F900FBE0F901F9018951F9200
:101070000F920FB60F9211240BB60F922F933F933E
:101080004F935F936F937F938F939F93AF93BF9390
:10109000EF93FF9348E850E064E870E081E090E06F
:1010A0000E940C03FF91EF91BF91AF919F918F919F
:1010B0007F916F915F914F913F912F910F900BBE58
:1010C0000F900FBE0F901F9018951F920F920FB6A2
:1010D0000F9211240BB60F922F933F934F935F9370
:1010E0006F937F938F939F93AF93BF93EF93FF93F0
:1010F000E091F902F091FA02309749F0A685B785A0
:101100008585968D91FF16C09C918923B1F4FF913E
:10111000EF91BF91AF919F918F917F916F915F916F
:101120004F913F912F910F900BBE0F900FBE0F90DC
:101130001F9018959C91892351F7A389B4899C919C
:101140008589809589238C93868997890197F1F702
:10115000608D718DA685B785558538E020E0CB017F
:101160000197F1F7822F90E095958795282F4C9164
:10117000452309F02068315091F7868D81FD209537
:101180008091F70290E001968F7399273091F802D1
:10119000381799F0A091F702B0E0A954BD4F2C93F5
:1011A0008093F702828D938D0197F1F7A389B4891B
:1011B0008C919589892B8C93AACF868D8160868F9F
:1011C000F1CF1F920F920FB60F9211240BB60F9210
:1011D0002F933F934F935F936F937F938F939F933F
:1011E000AF93BF93EF93FF938091B900887F8036D0
:1011F00009F44DC008F040C0883209F4A7C028F5B2
:10120000803109F49BC0C8F4882309F4F7C0883002
:1012100009F494C0FF91EF91BF91AF919F918F918D
:101220007F916F915F914F913F912F910F900BBEE6
:101230000F900FBE0F901F901895883109F486C04B
:10124000803241F78093900214C0803409F49BC02F
:1012500040F48033B9F38833E9F68093900285EC4B
:10126000AEC0803509F483C0883509F494C0883451
:1012700089F60E948E06CECF883909F48AC038F5E7
:10128000883729F050F4883611F0803719F683E05A
:101290008093910210928F0255C0883809F479C06A
:1012A000803919F0803809F0B5CF80918F028032F3
:1012B00008F06FC0E0918F0281E08E0F80938F0263
:1012C0008091BB00F0E0E159FD4F80833BC0803B43
:1012D00039F0D0F4803A09F477C0883A09F09ACF0F
:1012E00084E08093910210926E0210926D02F0E001
:1012F000E0E0099580916D0281110FC081E080933B
:101300006D0210924D0209C0803C09F4A8CF883CC0
:1013100009F4A5CF883B09F07DCFE0916E0281E012
:101320008E0F80936E02F0E0E35BFD4F808180932F
:10133000BB0090916E0280916D0229C08091B6022F
:101340008093BB0085EC8093BC0064CF9091B50284
:101350008091B402981758F5E091B50281E08E0FA4
:101360008093B502F0E0EC56FD4F8081E9CFE0912B
:10137000B50281E08E0F8093B5028091BB00F0E052
:10138000EC56FD4F80839091B5028091B40298177E
:10139000C8F285E8D8CFE091B50281E08E0F809346
:1013A000B5028091BB00F0E0EC56FD4F8083809148
:1013B000930281115ECF81E08093920284EA809350
:1013C000BC001092910226CF85EC8093BC00109255
:1013D000910280918F02803230F4E0918F02F0E030
:1013E000E159FD4F108260918F0270E08FE692E02C
:1013F000F0E0E0E0099510928F020CCF109290027D
:1014000038CF0F931F93CF93DF931092A7031092BF
:10141000A60388EE93E0A0E0B0E08093A803909349
:10142000A903A093AA03B093AB032AE032E0309360
:10143000A5032093A40325EC30E03093B10320935F
:10144000B00324EC30E03093B3032093B20320ECDC
:1014500030E03093B5032093B40321EC30E03093B7
:10146000B7032093B60322EC30E03093B903209306
:10147000B80326EC30E03093BB032093BA031092FC
:10148000BD031092BE031092BF031092C0031092CE
:101490004404109243048093450490934604A0931F
:1014A0004704B09348048CE192E090934204809307
:1014B0004104109258041092570410925A0410924A
:1014C000590410925C0410925B0410925E04109216
:1014D0005D0460915F046E7F6D7F60935F0466952D
:1014E000617081E0682782E10E944E014BE052E08A
:1014F000FA01649185EC91E0FC012491222399F09A
:1015000030E0220F331FF901E158FE4FA591B4914D
:10151000F901E756FE4F259134912FB7F8943C918D
:10152000632B6C932FBFFA01449140935104FC014B
:101530008491E82FF0E0EE0FFF1FE756FE4F8591F4
:10154000949190935304809352040CE012E0F801BC
:101550002491C6ECD1E0FE0184918823C9F090E08B
:10156000880F991FFC01E158FE4FA591B491FC0131
:10157000E756FE4F459154913FB7F8949C91822FC6
:10158000809598239C93FA019081892380833FBFA3
:1015900080915F0481FD04C061E083E10E944E01FF
:1015A00083E180934D04F801049100934E04FE0101
:1015B000C491EC2FF0E0EE0FFF1FEB59FE4F859129
:1015C00094919093500480934F04DF91CF911F9199
:1015D0000F910895CF93DF93CDB7DEB762970FB623
:1015E000F894DEBF0FBECDBF789484B5826084BD11
:1015F00084B5816084BD85B5826085BD85B5816017
:1016000085BD80916E00816080936E001092810094
:10161000809181008260809381008091810081604F
:101620008093810080918000816080938000809110
:10163000B10084608093B1008091B000816080939C
:10164000B000809191008260809391008091910020
:1016500081608093910080919000816080939000E0
:101660008091A10082608093A1008091A10081609F
:101670008093A1008091A00081608093A000809160
:1016800021018260809321018091210181608093FA
:1016900021018091200181608093200180917A0056
:1016A000846080937A0080917A00826080937A00CF
:1016B00080917A00816080937A0080917A008068BE
:1016C00080937A001092C100E091B403F091B503C9
:1016D00082E08083E091B003F091B1031082E09149
:1016E000B203F091B3038FEC80831092BC03E091BE
:1016F000B803F091B90386E08083E091B603F091DE
:10170000B703808180618083E091B603F091B703D5
:10171000808188608083E091B603F091B703808177
:1017200080688083E091B603F091B70380818F7D5C
:1017300080832FB7F8946091A0037091A1038091EA
:10174000A2039091A3032FBF0E94520E60939703B0
:10175000709398038093990390939A0381E494E0A3
:101760000E94D703892B09F4B3C01E861D86188AF0
:101770001F861A8A198ACE010D960E9408060E94B9
:101780000E0409891A8997FD1CC08A309105C9F099
:1017900089831A820F5F1F4FB801CE010D960E94F8
:1017A000CE05882361F32D853E8589899A89BE01FE
:1017B0006F5F7F4F820F931F0E94EB121A8B098B72
:1017C000DECFCD84DE84C114D10429F07601011569
:1017D000110509F089C089899A89892B09F452C0B9
:1017E0000D851E856CE270E0C8010E94E012009732
:1017F00009F448C09C01201B310B89010F3F1007E1
:1018000009F440C0980150E040E0BE01635F7F4FA3
:10181000CE0107960E94200629893A89A8014F5FC8
:101820005F4FBE01635F7F4FCE0101960E9420068D
:101830008F819885C12CD12C7601009721F00E94D0
:10184000CA0C6B017C0189819A81009709F482C0DE
:101850000E94CA0CC0929303D0929403E092950325
:10186000F092960360938F0370939003809391039B
:1018700090939203CE0101960E948606CE010796B0
:101880000E94860686E392E00E94A1046091930381
:1018900070919403809195039091960342E00E9489
:1018A000F2048AE392E00E94A10460918F03709198
:1018B0009003809191039091920342E00E94F20480
:1018C00080E492E00E94A104CE010D960E9486065B
:1018D00083E492E00E94A10480E492E00E94A104CB
:1018E0000E94DB0226CF750157012FEFA21AB20A20
:1018F000F7018081082E000C990B0E942C0E892B79
:1019000091F7015011090C0D1D1DF8018081082E61
:10191000000C990B0E942C0E892B31F00E151F051F
:1019200018F001501109F1CFA8014F5F5F4F4E1918
:101930005F095A8B498BCE14DF0420F4B701C6012E
:101940000E94D712ED85FE8589899A89E80FF91FD3
:10195000108241CF60E070E0CB017CCF8CE192E05F
:1019600090934204809341048091F9029091FA028D
:101970008154944071F4E0915404F09155049081A5
:10198000809156048095892380831092FA021092E8
:10199000F9020895662777270C94CE0C8F929F92B8
:1019A000AF92BF92CF92DF92EF92FF920F931F936D
:1019B000CF93DF935C017B016115710519F0DB01A9
:1019C0008D939C9385010F5F1F4FF501D0818D2F63
:1019D00090E00E942C0E6C01892BB9F5DD32B9F52F
:1019E0000F5F1F4FD5011196DC91C1E05801F1E066
:1019F000AF1AB10843E050E06CEE70E0C5010E9400
:101A0000350E892B69F5680182E0C80ED11C45E0CE
:101A100050E067EE70E0C6010E94350E892B21F47C
:101A2000680197E0C90ED11CE114F10419F0D70147
:101A3000CD92DC9260E070E080E89FEFC111FFC0C2
:101A400060E070E080E89FE7FAC05801BBCFDB326E
:101A500029F485010E5F1F4FF501D181C0E0C6CF8B
:101A600043E050E064EE70E0C5010E94350E892B22
:101A7000E9F0F80110E000E020E030E0A9015F01AA
:101A8000B0ED8B2E8D0E89E08815C8F19C2E6894E0
:101A900091F88C2F8870C2FF16C0811102C00F5FB1
:101AA0001F4F3196D501DC91C92DE9CFE114F10426
:101AB00029F00E5F1F4FF7011183008360E070E093
:101AC00080EC9FE7BCC0882311F001501109A5E00C
:101AD000B0E00E94740F9B01AC01220F331F441F22
:101AE000551F280D311D411D511D283999E9390710
:101AF000490799E15907A8F2C6609C2ED2CFAEEFF4
:101B00008A1206C0C3FD3CC09C2E689493F8C9CFCE
:101B1000DF7DD534A9F580818D3239F4C061DF01D4
:101B20001296818162E070E006C0DF018B32C1F362
:101B3000119661E070E080535D01A61AB70A8A3001
:101B4000F8F4E0E8CE16ECE0DE065CF4B601660FD1
:101B5000771F660F771FC60ED71ECC0CDD1CC80E74
:101B6000D11C5D01FFEFAF1ABF0A8C9180538A3000
:101B7000A8F1C4FF03C0D194C194D1080C0D1D1D60
:101B8000C1FF09C0E114F10431F081E0A81AB108E5
:101B9000D701AD92BC92CA01B9010E94520EC37026
:101BA000C33009F490584B015C0120E030E0A901FA
:101BB0000E944D0E882309F440C0CBE1D1E017FF0D
:101BC00005C0119501951109C3E0D1E06E01B8E19E
:101BD000CB1AD10880E2E82EF12C0FC0D501B1CF8D
:101BE000FE0125913591459154910E191F09C501AA
:101BF000B4010E94B30E4B015C01D501C4010E1566
:101C00001F0574F72497F594E794CC16DD06A9F721
:101C10008A2F880F8B2F881F8F3F49F020E030E0FC
:101C2000A901C501B4010E944D0E811106C082E2D6
:101C300090E09093610480936004C501B401DF914A
:101C4000CF911F910F91FF90EF90DF90CF90BF90B9
:101C5000AF909F908F90089591110C94200F803237
:101C600019F089508550C8F70895FB01DC014150F7
:101C7000504088F08D9181341CF08B350CF4805EDF
:101C8000659161341CF06B350CF4605E861B61114C
:101C900071F3990B0895881BFCCF0E948F0E08F4F6
:101CA00081E00895E89409C097FB3EF490958095F3
:101CB000709561957F4F8F4F9F4F9923A9F0F92F12
:101CC00096E9BB279395F695879577956795B79590
:101CD000F111F8CFFAF4BB0F11F460FF1BC06F5F76
:101CE0007F4F8F4F9F4F16C0882311F096E911C088
:101CF000772321F09EE8872F762F05C0662371F0A9
:101D000096E8862F70E060E02AF09A95660F771FBC
:101D1000881FDAF7880F9695879597F90895990F98
:101D20000008550FAA0BE0E8FEEF16161706E807A5
:101D3000F907C0F012161306E407F50798F0621BC6
:101D4000730B840B950B39F40A2661F0232B242B9B
:101D5000252B21F408950A2609F4A140A6958FEFBA
:101D6000811D811D08950E94C60E0C943A0F0E9499
:101D70002C0F38F00E94330F20F0952311F00C94B3
:101D8000230F0C94290F11240C946E0F0E944B0FFB
:101D900070F3959FC1F3950F50E0551F629FF001BE
:101DA000729FBB27F00DB11D639FAA27F00DB11DD7
:101DB000AA1F649F6627B00DA11D661F829F222760
:101DC000B00DA11D621F739FB00DA11D621F839FE7
:101DD000A00D611D221F749F3327A00D611D231FBD
:101DE000849F600D211D822F762F6A2F11249F570B
:101DF00050409AF0F1F088234AF0EE0FFF1FBB1F0E
:101E0000661F771F881F91505040A9F79E3F5105CC
:101E100080F00C94230F0C946E0F5F3FE4F3983E18
:101E2000D4F3869577956795B795F795E7959F5F76
:101E3000C1F7FE2B880F911D9695879597F9089508
:101E400099278827089597F99F6780E870E060E0F8
:101E500008959FEF80EC089500240A941616170643
:101E600018060906089500240A941216130614068B
:101E700005060895092E0394000C11F4882352F0EE
:101E8000BB0F40F4BF2B11F460FF04C06F5F7F4FA6
:101E90008F4F9F4F089557FD9058440F551F59F08D
:101EA0005F3F71F04795880F97FB991F61F09F3F47
:101EB00079F087950895121613061406551FF2CF70
:101EC0004695F1DF08C0161617061806991FF1CFC0
:101ED00086957105610508940895E894BB276627E7
:101EE0007727CB0197F908950E94A10FA59F900D28
:101EF000B49F900DA49F800D911D11240895A1E21F
:101F00001A2EAA1BBB1BFD010DC0AA1FBB1FEE1F73
:101F1000FF1FA217B307E407F50720F0A21BB30BBE
:101F2000E40BF50B661F771F881F991F1A9469F73A
:101F300060957095809590959B01AC01BD01CF0196
:101F40000895A29FB001B39FC001A39F700D811D92
:101F50001124911DB29F700D811D1124911D0895B2
:101F6000EE0FFF1F0024001C0BBE0790F691E02D22
:101F700009945058BB27AA270E94D10F0C943A0FFE
:101F80000E942C0F38F00E94330F20F039F49F3F4D
:101F900019F426F40C94290F0EF4E095E7FB0C9449
:101FA000230FE92F0E944B0F58F3BA1762077307EC
:101FB0008407950720F079F4A6F50C946D0F0EF4C4
:101FC000E0950B2EBA2FA02D0B01B90190010C0149
:101FD000CA01A0011124FF27591B99F0593F50F461
:101FE000503E68F11A16F040A22F232F342F4427B9
:101FF000585FF3CF469537952795A795F0405395B1
:10200000C9F77EF41F16BA0B620B730B840BBAF080
:102010009150A1F0FF0FBB1F661F771F881FC2F7EB
:102020000EC0BA0F621F731F841F48F487957795FF
:102030006795B795F7959E3F08F0B0CF9395880FB9
:1020400008F09927EE0F9795879508950E943A100A
:102050000C943A0F0E94330F58F00E942C0F40F05E
:1020600029F45F3F29F00C94230F51110C946E0F4B
:102070000C94290F0E944B0F68F39923B1F3552359
:1020800091F3951B550BBB27AA276217730784078B
:1020900038F09F5F5F4F220F331F441FAA1FA9F321
:1020A00035D00E2E3AF0E0E832D091505040E6950F
:1020B000001CCAF72BD0FE2F29D0660F771F881F70
:1020C000BB1F261737074807AB07B0E809F0BB0B63
:1020D000802DBF01FF2793585F4F3AF09E3F510577
:1020E00078F00C94230F0C946E0F5F3FE4F3983E4E
:1020F000D4F3869577956795B795F7959F5FC9F760
:10210000880F911D9695879597F90895E1E0660FE0
:10211000771F881FBB1F621773078407BA0720F059
:10212000621B730B840BBA0BEE1F88F7E0950895C2
:102130000E94530F88F09F5798F0B92F9927B751F5
:10214000B0F0E1F0660F771F881F991F1AF0BA955B
:10215000C9F714C0B13091F00E946D0FB1E008953D
:102160000C946D0F672F782F8827B85F39F0B93F2F
:10217000CCF3869577956795B395D9F73EF490950E
:102180008095709561957F4F8F4F9F4F08950E9466
:102190008F0E08F48FEF08950E948F0E880B990B15
:1021A00008950F931F93CF93DF938230910510F41E
:1021B00082E090E0E0916404F091650430E020E07A
:1021C000B0E0A0E0309799F42115310509F44AC038
:1021D000281B390B24303105D8F58A819B81611584
:1021E000710589F1FB0193838283FE0111C0408157
:1021F00051810281138148175907E0F048175907A8
:1022000099F4109761F012960C93129713961C9301
:102210003296CF01DF91CF911F910F9108950093D6
:10222000640410936504F4CF2115310551F0421771
:10223000530738F0A901DB019A01BD01DF01F80164
:10224000C1CFEF01F9CF9093650480936404CDCFA3
:10225000FE01E20FF31F81939193225031093983DC
:102260002883D7CF2091620430916304232B41F45B
:1022700020910202309103023093630420936204A0
:1022800020910002309101022115310541F42DB752
:102290003EB74091040250910502241B350BE0919A
:1022A0006204F0916304E217F307A0F42E1B3F0BC6
:1022B0002817390778F0AC014E5F5F4F24173507B8
:1022C00048F04E0F5F1F5093630440936204819364
:1022D00091939FCFF0E0E0E09CCFCF93DF93009706
:1022E000E9F0FC01329713821282A0916404B0914C
:1022F0006504ED0130E020E01097A1F420813181E8
:10230000820F931F209162043091630428173907CC
:1023100009F061C0F0936304E0936204DF91CF9110
:102320000895EA01CE17DF07E8F54A815B819E0137
:1023300041155105B1F7E901FB83EA8349915991B0
:10234000C40FD51FEC17FD0761F4808191810296BF
:10235000840F951FE90199838883828193819B83F0
:102360008A83F0E0E0E012968D919C91139700979C
:10237000B9F52D913C911197CD010296820F931FD3
:1023800020916204309163042817390739F6309799
:1023900051F51092650410926404B0936304A09305
:1023A0006204BCCFD383C28340815181840F951FC7
:1023B000C817D90761F44E5F5F4F88819981480F34
:1023C000591F518340838A819B8193838283211586
:1023D000310509F0B0CFF0936504E09364049ECF1B
:1023E000FD01DC01C0CF13821282D7CF4F925F92E2
:1023F0006F927F928F929F92AF92BF92CF92DF9215
:10240000EF92FF920F931F93CF93DF938C0100976E
:1024100099F4CB01DF91CF911F910F91FF90EF9035
:10242000DF90CF90BF90AF909F908F907F906F90F4
:102430005F904F900C94D110FC01E60FF71F9C01A8
:1024400022503109E217F30708F4AEC0D901CD914B
:10245000DC911197C617D70720F1C530D10578F068
:10246000CE0104978617970750F0C61BD70B22970B
:10247000C193D1936D937C93CF010E946D11C801DC
:10248000DF91CF911F910F91FF90EF90DF90CF9050
:10249000BF90AF909F908F907F906F905F904F9084
:1024A00008955B01AC1ABD0A4C018C0E9D1EA091D3
:1024B0006404B0916504512C412CF12CE12C10974F
:1024C00031F580916204909163048815990509F0B3
:1024D0005CC04616570608F058C0809100029091E3
:1024E0000102009741F48DB79EB7409104025091CC
:1024F0000502841B950BE817F90708F055C0F09307
:102500006304E0936204F90171836083B8CF8D9115
:102510009C91119712966C90129713967C9013973A
:10252000A815B90559F56C0142E0C40ED11CCA14B6
:10253000DB0420F1AC014A195B09DA011296159708
:1025400080F06282738251834083D9016D937C93C2
:10255000E114F10471F0D7011396FC93EE931297F6
:102560008ECF22968C0F9D1FF90191838083F301FA
:10257000EFCFF0936504E093640481CF48165906C9
:1025800008F42C017D01D3019ACFCB010E94D11018
:102590007C01009749F0AE01B8010E94D712C80132
:1025A0000E946D1187016BCF10E000E068CFFB0146
:1025B000DC0102C001900D9241505040D8F70895BF
:1025C000FC018191861721F08823D9F79927089576
:1025D0003197CF010895FB01DC0101900D9200209D
:1025E000E1F7089511E0C1E2D1E004C0FE010E94CC
:0E25F000B00F2196C232D107C9F7F894FFCF81
:1025FE00000066048000000000006E02D801050293
:10260E00BB02360214022802000000007B03D80130
:10261E009E047A03D703ED0362036E616E00696E4A
:10262E0066006F766600583A20002C20593A20003A
:06263E000D0A004C6900CA
:00000001FF
