:100000000C9486010C94DE160C94B3160C9488168E
:100010000C945D160C9432160C9407160C94DC1597
:100020000C94B1150C94B7010C94B7010C94B70162
:100030000C94B7010C94B7010C94B7010C94B70160
:100040000C94B7010C94F3170C94B7010C94B701FE
:100050000C94B7010C94B7010C94B7010C9467157C
:100060000C94B7010C9433170C9409170C94B70136
:100070000C94B7010C94B7010C94B7010C94B70120
:100080000C94C5170C94B7010C94B7010C94B701EC
:100090000C94B7010C94B7010C94B7010C9421187F
:1000A0000C94B7010C94B7010C9497170C94B701FA
:1000B0000C94B7010C94B7010C94B7010C94691718
:1000C0000C94B7010C94B7010C94B7010C94B701D0
:1000D0000C94B7010C94B7010C94B7010C94B701C0
:1000E0000C94B701084AD73B3BCE016E84BCBFFDE0
:1000F000C12F3D6C74319ABD56833DDA3D00C77FF8
:1001000011BED9E4BB4C3E916BAAAABE0000008090
:100110003F000C94CF0C0C94E90C0C94D9020C9475
:10012000F6010C94760C0C9415030C940C0D0C94A5
:1001300013070C94BB0C0C9445190C94200D0C94D3
:10014000AC0C0C9417020C94D70C0C94340D0C943A
:100150000E020C94C50C0C943E0D0C940A020C94E7
:100160003D070C94EC010C94DD010C94D8020C9426
:1001700036070C94B10C0C946A070C94BC030C94D5
:10018000F30C0C9400020C942A0D0C9418020C949D
:10019000D7010C9437030C9406030C94E5010C94DE
:1001A000E1010C94FD0C0C9423070C94E9010C94D0
:1001B000D7020C94160D0C9429030C9442080C944D
:1001C000FC010C9412020C941C020C9499070C94E0
:1001D00014070C943E080C94DF0C0C9404020C944D
:1001E000D6020C946F030C94F2010000200023004F
:1001F000260029002C002F0032000001000003011E
:100200000601090100002100240027002A002D001A
:100210003000330001010000040107010A01000061
:100220002200250028002B002E003100340002019E
:100230000000050108010B01050505050705080873
:100240000808020202020A0A080804040404010160
:100250000101010101010303030303030303040775
:1002600007070C0C0C0C0C0C0C0C0202020206060C
:100270000606060606060B0B0B0B0B0B0B0B0102FF
:1002800010202008081020401020408002010201A8
:100290000804020101020408102040808040201060
:1002A00008040201800402018040201008040201B9
:1002B0000804020101020408102040800102040821
:1002C0001020408000000A0B02090C0D0E080703E5
:1002D0000401000000000000000000000000000019
:1002E000000000000000000000000000000000000E
:1002F00012111000000000000000000000000000CB
:1003000000000000000000000000451911241FBE7D
:10031000CFEFD1E2DEBFCDBF00E00CBF12E0A0E026
:10032000B2E0E6EEF6E400E00BBF02C007900D92EB
:10033000A839B107D9F726E0A8E9B2E001C01D92BB
:10034000AC31B207E1F711E0C6E8D1E000E006C049
:1003500021970109802FFE010E949121C538D10704
:1003600080E00807A9F70E94721B0C9471230C947B
:1003700000008150823108F05AC0E82FF0E0882751
:10038000EB53FE4F8F4F0C949121E501E901D7010A
:10039000DD01E1011702EC01F201F601FC010002AE
:1003A00004020A020E021702120218021C028091B5
:1003B00080008F77809380000895809180008F7DEA
:1003C000F9CF80918000877FF5CF84B58F7784BD8A
:1003D000089584B58F7DFBCF8091B0008F77809397
:1003E000B00008958091B0008F7DF9CF809190008A
:1003F0008F77809390000895809190008F7DF9CF42
:1004000080919000877FF5CF8091A0008F778093B7
:10041000A00008958091A0008F7DF9CF8091A00069
:10042000877FF5CF809120018F77809320010895F9
:10043000809120018F7DF9CF80912001877FF5CFBA
:100440001F93CF93DF93282F30E0F901EC53FD4F3A
:100450008491F901E258FD4FD491F901E85CFD4F18
:10046000C491CC23A9F0162F81110E94B901EC2F61
:10047000F0E0EE0FFF1FE25EFD4FA591B4918FB744
:10048000F894EC91111108C0D095DE23DC938FBF56
:10049000DF91CF911F910895DE2BF8CFCF93DF939B
:1004A00090E0FC01E258FD4F2491885C9D4FFC01D7
:1004B00084918823D1F090E0880F991FFC01EC5FB4
:1004C000FD4FA591B491FC01E25EFD4FC591D49121
:1004D00061110EC09FB7F8948C91E22FE0958E23A6
:1004E0008C932881E223E8839FBFDF91CF91089509
:1004F0008FB7F894EC91E22BEC938FBFF6CF3FB718
:10050000F8948091100390911103A0911203B0917F
:10051000130326B5A89B05C02F3F19F00196A11D16
:10052000B11D3FBFBA2FA92F982F8827BC01CD013D
:10053000620F711D811D911D42E0660F771F881F9C
:10054000991F4A95D1F708958F929F92AF92BF92CB
:10055000CF92DF92EF92FF924B015C010E947F02EB
:100560006B017C010E947F026C197D098E099F0935
:10057000683E734081059105A8F321E0821A910835
:10058000A108B10888EEC80E83E0D81EE11CF11C5A
:1005900081149104A104B10429F7FF90EF90DF903A
:1005A000CF90BF90AF909F908F9008950895089539
:1005B0000895AF92BF92CF92DF92EF92FF920F9386
:1005C0001F93CF93DF936C017B018B01040F151FE9
:1005D000EB015E01AE18BF08C017D10759F0699151
:1005E000D601ED91FC910190F081E02DC6011995A5
:1005F000892B79F7C501DF91CF911F910F91FF9062
:10060000EF90DF90CF90BF90AF900895FC01538D95
:10061000448D252F30E0842F90E0821B930B5417DC
:1006200010F0CF96089501970895FC01918D828D69
:10063000981761F0A28DAE0FBF2FB11D5D968C9102
:10064000928D9F5F9F73928F90E008958FEF9FEF41
:100650000895FC01918D828D981731F0828DE80FFD
:10066000F11D858D90E008958FEF9FEF0895FC01B7
:10067000918D228D892F90E0805C9F4F821B910984
:100680008F739927089588E693E00E94370321E04D
:10069000892B09F420E0822F0895FC01A48DA80F76
:1006A000B92FB11DA35ABF4F2C91848D90E00196B4
:1006B0008F739927848FA689B7892C93A089B189D4
:1006C0008C91837080648C93938D848D981306C075
:1006D0000288F389E02D80818F7D80830895EF92D9
:1006E000FF920F931F93CF93DF93EC0181E0888FEC
:1006F0009B8D8C8D98131AC0E889F989808185FFBC
:1007000015C09FB7F894EE89FF896083E889F9895D
:1007100080818370806480839FBF81E090E0DF915F
:10072000CF911F910F91FF90EF900895F62E0B8DB2
:1007300010E00F5F1F4F0F731127E02E8C8D8E116D
:100740000CC00FB607FCFACFE889F989808185FFD4
:10075000F5CFCE010E944D03F1CFEB8DEC0FFD2FB5
:10076000F11DE35AFF4FF0829FB7F8940B8FEA898F
:10077000FB8980818062CFCFCF93DF93EC01888D9E
:100780008823B9F0AA89BB89E889F9898C9185FD0C
:1007900003C0808186FD0DC00FB607FCF7CF8C919A
:1007A00085FFF2CF808185FFEDCFCE010E944D0302
:1007B000E9CFDF91CF91089580E090E0892B29F077
:1007C0000E94430381110E94000080E090E0892B89
:1007D00049F080E090E0892B29F00E94000081110F
:1007E0000E94000080E090E0892B49F080E090E0DA
:1007F000892B29F00E94000081110E94000080E0F6
:1008000090E0892B49F080E090E0892B29F00E944C
:10081000000081110C94000008958F929F92AF9276
:10082000BF92CF92DF92EF92FF92FC01828158E556
:10083000C52E52E0D52EC81AD10887FDD394CC0C12
:10084000DD1CCC0CDD1C0D2C000CEE08FF0881819A
:1008500078E8872E912C881A910887FD9394880C4C
:10086000991C880C991C092C000CAA08BB088081D3
:100870008F3FD1F190E0FC01EE0FFF1FE80FF91F51
:10088000EF5EFB4F8181928133E0880F991F3A958B
:10089000E1F7B0E0A0E044E0B595A795979587957E
:1008A0004A95D1F702969C012F5F3F4F032E000C13
:1008B000440B550B281939094A095B09A4EBB0E030
:1008C0000E942D21A7019601281939094A095B09BF
:1008D0000E940E21C901FF90EF90DF90CF90BF9052
:1008E000AF909F908F90089590E080E0DCCFCF9202
:1008F000DF92EF92FF92CF93DF93EC01603282E0C0
:100900007807CCF5653B710514F064EB70E08981E4
:1009100028E830E0281B310987FD3395220F331F6B
:10092000220F331F6901330FEE08FF088A8128E583
:1009300032E0281B310987FD3395220F331F220F28
:10094000331F032E000C440B550B2C193D094E0987
:100950005F09DB0177FF02C0B0E0A0E00E94382110
:1009600024EB30E040E050E00E940E21C20ED31E86
:10097000E41EF51EB601E881E03370F5298188E8B0
:1009800090E0821B910927FD9395880F991F880F8E
:10099000991F681779077CF02A8188E592E0821B0D
:1009A000910927FD9395880F991F880F991F681744
:1009B00079070CF4CB010297880F991F4FB7F89471
:1009C0002E2F30E0F901EE0FFF1FE20FF31FEF5E55
:1009D000FB4F928381834FBFDF91CF91FF90EF90C8
:1009E000DF90CF900895AF92BF92CF92DF92EF92B7
:1009F000FF920F931F93CF93DF936B017A01EC016A
:100A0000CF5FDC4F28813CE0389F8001399F100D7B
:100A10001124A090A104B12C27FF1FC0FB0111825B
:100A2000108288818F5F888388819801280F311D0B
:100A300087FD3A95F6012A153B051CF488818C3018
:100A4000C4F180819181049680349C4908F473C07C
:100A5000F60180819181049670C088819801280FE9
:100A6000311D87FD3A952A153B05DCF68881A801E2
:100A7000480F511D87FD5A95FA01EE0FFF1FE40F35
:100A8000F51FEF5EFB4F808186FFCBCF8881F80199
:100A9000E80FF11D87FDFA95CF01EE0FFF1FE80F5C
:100AA000F91FEF5EFB4F808160E08F730E94200290
:100AB000B8CF808191812881A801420F511D27FD67
:100AC0005A959A01FA01EE0FFF1FE20FF31FEF5E36
:100AD000FB4F21813281820F931FF7019183808325
:100AE00088819801280F311D87FD3A95F901EE0F95
:100AF000FF1FE20FF31FEF5EFB4F808186FF22C0D6
:100B00008881080F111D87FD1A95F801EE0FFF1F50
:100B1000E00FF11FEF5EFB4F808161E08F73DF918B
:100B2000CF911F910F91FF90EF90DF90CF90BF90EA
:100B3000AF900C94200280E49CE9F70191838083BC
:100B40008FEF8883DF91CF911F910F91FF90EF90EE
:100B5000DF90CF90BF90AF9008958FB7F8948091B9
:100B600000038FBF08958EBD00000DB407FEFDCFBA
:100B70008EB508958CBD9DBD08952091BD02260FB0
:100B80003327331F21323105ECF420913E03FC0161
:100B900090E080E0243069F082E00895A091BD02E9
:100BA0002191AC0143565D4FA40FB52FB11D2C937D
:100BB0000196861798F38091BD02680F6093BD027D
:100BC00080E0089581E0089510923E0381E08093D3
:100BD0003D031092180361E084E10E94200261E06D
:100BE00085E10E942002E9EBF0E080818E7F808326
:100BF00080818D7F808388E48093B80085E4809332
:100C0000BC000895CF93DF9391E090939C028823DA
:100C1000B9F0C091B800D091BA008091BC008A7B35
:100C20008093BC0060E084E10E94200260E085E1E6
:100C30000E9420020E94E405D093BA00C093B8003D
:100C4000DF91CF9108958F929F92AF92BF92CF92F2
:100C5000DF92EF92FF920F931F93CF93DF93D09188
:100C60006703D13208F0D7C0182FC09166030E94E5
:100C70007F026B017C0180913E0381116BC082E099
:100C800080933E0310933D038FEF80933C031092BB
:100C90003B03D0933A03A6E4B3E0EAE1F3E080E05B
:100CA000D81391C01092190380911903CC0FC82B4F
:100CB000C093190380911803813009F088C0109205
:100CC00018030E947F026B017C01809119038093BD
:100CD000BB008091400390914103A0914203B091E9
:100CE0004303892B8A2B8B2BA1F00E947F0200915A
:100CF00040031091410320914203309143036C194A
:100D00007D098E099F09061717072807390708F478
:100D100042C08091BC0083FDD8CF85EC8093BC009D
:100D20000E947F026B017C0180913E03823009F4B6
:100D300050C080913C038F3F09F46FC080913C0309
:100D4000803209F46CC080913C03803309F469C09F
:100D500084E026C08091400390914103A09142031A
:100D6000B0914303892B8A2B8B2B09F484CF0E94EB
:100D70007F028090400390904103A0904203B09086
:100D800043036C197D098E099F0986169706A806EC
:100D9000B90608F070CF80913F030E94020685E0FB
:100DA000109245031092670310924403DF91CF9194
:100DB0001F910F91FF90EF90DF90CF90BF90AF9079
:100DC0009F908F9008959D9191938F5F69CF85EE4D
:100DD000A5CF8091400390914103A0914203B0912F
:100DE0004303892B8A2B8B2B09F49ECF0E947F0211
:100DF000009140031091410320914203309143033D
:100E00006C197D098E099F090617170728073907EE
:100E100008F08ACFC0CF81E0C3CF80E0C1CF82E0AD
:100E2000BFCF83E0BDCF0895E0910A03809109030D
:100E3000E81730F4F0E0E052FD4F808190E0089533
:100E40008FEF9FEF089590910A03809109032FEF90
:100E50003FEF981748F4E92FF0E0E052FD4F208172
:100E600030E09F5F90930A03C901089580910903C0
:100E700090910A03891B990B0895CF92DF92EF920C
:100E8000FF920F931F93CF93DF937C01CB018A01D5
:100E900020914403222389F0EB016B01C40ED51E7F
:100EA000CC15DD0569F06991D701ED91FC910190B8
:100EB000F081E02DC7011995F3CF642F0E94BD0585
:100EC000C801DF91CF911F910F91FF90EF90DF90BC
:100ED000CF900895CF93DF931F92CDB7DEB769838C
:100EE000209144032223F9F020916703203258F027
:100EF00021E030E0FC013383228390E080E00F901A
:100F0000DF91CF91089580914503E82FF0E0EA5BEF
:100F1000FC4F998190838F5F809345038093670393
:100F200081E090E0ECCF61E0CE0101960E94BD052A
:100F3000F7CF90E080E00895CF92DF92EF92FF929A
:100F40000E947F026B017C01809114039091150334
:100F5000A0911603B0911703A7019601281B390B26
:100F60004A0B5B0BCA01B9010E94F11F20E034E279
:100F700044E759E40E948C2260939802709399028E
:100F800080939A0290939B02C0921403D09215030F
:100F9000E0921603F0921703FF90EF90DF90CF904E
:100FA0000895EF92FF920F931F93CF93DF9300D09A
:100FB0001F92CDB7DEB78C01FC0120AD31AD3327D8
:100FC000F901EC53FD4F8491F901E258FD4FE49093
:100FD000F901E85CFD4FF49070E060E0FF2099F0CB
:100FE00081110E94B901EF2DF0E0EE0FFF1FE651D5
:100FF000FE4FA591B491EC91EE2291E080E009F4CE
:1010000090E0692F782F072E000C880B990B0E9417
:10101000F11F69837A838B839C8369817A818B81B9
:101020009C8120E030E0A9010E945B23F8011816A2
:10103000D4F4608171818281938120E030E040E8C6
:101040005FE30E94AE21F801608371838283938302
:101050000F900F900F900F90DF91CF911F910F91F4
:10106000FF90EF900895608171818281938120E0EB
:1010700030E040E85FE30E94AD21E5CF8CED95E0E4
:101080000C94D1078CE995E00C94D1070F931F9332
:10109000FC0100E012E12AE730E090E04017510740
:1010A0006207730740F436952795179507959F5F5C
:1010B0009630A1F797E0292F286B269520839095ED
:1010C000917091831F910F910895FC010190002070
:1010D000E9F73197AF01481B590BBC0188E693E053
:1010E0000C94D9028F929F92AF92BF920F931F934D
:1010F000CF93DF93CDB7DEB7A1970FB6F894DEBFDD
:101100000FBECDBF19A2423008F44AE08E010F5D38
:101110001F4F842E912CB12CA12CA50194010E946B
:101120004021E62FB901CA01EA30F4F4E05DD801AC
:10113000EE938D01232B242B252B79F790E080E073
:10114000109719F0CD010E946508A1960FB6F8948A
:10115000DEBF0FBECDBFDF91CF911F910F91BF902A
:10116000AF909F908F900895E95CE1CF4F925F928E
:101170006F927F928F929F92AF92BF92CF92DF92A7
:10118000EF92FF920F931F93CF93DF931F921F92C3
:10119000CDB7DEB7B62EE42FE114F104A1F480E060
:1011A0000F900F90DF91CF911F910F91FF90EF90D3
:1011B000DF90CF90BF90AF909F908F907F906F9077
:1011C0005F904F900895B901A8011E2F6C01DC01BA
:1011D00015962C911597213009F0F5C08D919C91B1
:1011E000119714963C912093440330936603109218
:1011F000450310926703DC01ED91FC910190F081B1
:10120000E02D6B2D199580E00E942306F6010481E4
:101210000E947F024B015C0180913E03811166C0F8
:1012200081E080933E0380933D039FEF90933C03C6
:1012300010923B03910F90933A038093190380918E
:101240001903000F082B00931903809118038130B4
:1012500009F093C0109218030E947F024B015C01B9
:10126000809119038093BB008091400390914103CA
:10127000A0914203B0914303892B8A2B8B2BA1F0C1
:101280000E947F02409040035090410360904203CF
:1012900070904303681979098A099B094616570615
:1012A0006806790608F443C08091BC0083FDD8CF5E
:1012B00085EC8093BC000E947F024B015C01809111
:1012C0003E03813009F45BC080913B03811708F035
:1012D00078C080913B03EAE1F3E0A0EEB2E090E059
:1012E000981751F121912D939F5FFACF8091400380
:1012F00090914103A0914203B0914303892B8A2B23
:101300008B2B09F489CF0E947F02409040035090BC
:1013100041036090420370904303681979098A0978
:101320009B09461657066806790608F075CF809126
:101330003F030E94020680E010920A038093090393
:10134000D60116968C9318132ACF5701012F10E05F
:10135000C5018E199F098017910708F065C0F60135
:1013600080819181DC01ED91FC910284F385E02D77
:101370001995F50181935F01EBCF85EE9ACF8091AE
:10138000400390914103A0914203B0914303892B04
:101390008A2B8B2B09F493CF0E947F02409040034D
:1013A000509041036090420370904303681979099B
:1013B0008A099B09461657066806790608F07FCF0A
:1013C000B6CF812F88CFCE0101960E944608898131
:1013D0009A810E94BA0560E0D60114968C910E9411
:1013E00020028B2D80680E94B305412F50E0F70149
:1013F00080818EBDCA01019741F031810DB407FE95
:10140000FDCF2EB53EBD2193F6CF415051094E0D73
:101410005F1D0DB407FEFDCF8EB5DA018C9361E040
:10142000F60184810E94200281E0BACE8F929F92C1
:10143000AF92BF92CF92DF92EF92FF920F931F93E2
:10144000CF93DF931F921F92CDB7DEB7C82ED62E53
:101450008090D6049090D704A090D804B090D9047E
:101460002091D404213009F049C08091CF0490919B
:10147000D0043091D3042093440330936603109238
:10148000450310926703DC01ED91FC910190F0811E
:10149000E02D6C2D19958091CF049091D004DC0142
:1014A000ED91FC910190F081E02D6D2D199581E079
:1014B0000E9423066AE070E080E090E00E94A402AF
:1014C000CE0101967C019501840141E06C2D8FECE9
:1014D00094E00E94B60881E099819D1180E00F9010
:1014E0000F90DF91CF911F910F91FF90EF90DF90C0
:1014F000CF90BF90AF909F908F900895B501A401B9
:10150000CE0101960E94460889819A810E94BA05FF
:1015100060E08091D3040E9420028C2D0E94B305CC
:101520008D2D0E94B30561E08091D3040E942002BA
:10153000C1CFEF92FF920F931F93CF93182FC62F17
:101540007A016CE885E20E94160A811107C080E0EA
:10155000CF911F910F91FF90EF900895612F86E238
:101560000E94160A882399F36C2F606887E20E9414
:10157000160A882361F361E070E080E090E00E9449
:10158000A4020091D6041091D7042091D804309180
:10159000D9044C2F69E48FEC94E00E94B608D8CFB0
:1015A0000F931F93CF93DF931F92CDB7DEB7082F12
:1015B000162F6CE085E20E94160A811102C080E0BD
:1015C0001FC0602F86E20E94160A8823C1F3612F94
:1015D00083E60E94160A882391F361E887E20E945D
:1015E000160A882361F3AE014F5F5F4F61E0802FE1
:1015F0000E94990A882321F081E099819113DFCF1D
:101600000F90DF91CF911F910F910895CF92DF92AC
:10161000EF92FF927C0124E0E20EF11CFC0182813A
:1016200093819C01261B370BB901C7010E947704E7
:10163000C7010E940D046C01990FEE08FF084AE0F3
:10164000C701B601F7FE0DC06DE288E693E00E9487
:101650006F0366277727CB016C197D098E099F09D7
:101660004AE00E94720884E392E0FF90EF90DF90DE
:10167000CF900C9465082F923F924F925F926F9299
:101680007F928F929F92AF92BF92CF92DF92EF9212
:10169000FF920F931F93CF93DF9300D000D01F9240
:1016A0001F92CDB7DEB78C011B01FC01778F668FCF
:1016B00019821A821B821C82F89480819181A281F6
:1016C000B38189839A83AB83BC837894C084D184AB
:1016D000E284F384C486D586E686F78689809A807C
:1016E000AB80BC8060897189072E000C880B990B38
:1016F0000E94F11F9B01AC01C501B4010E948C2224
:10170000F801608771878287938780909802909014
:101710009902A0909A02B0909B02A70196010E94A4
:10172000AD21A50194010E948C226B017C01F8017E
:10173000C482D582E682F782668D778D072E000CF3
:10174000880B990B0E94F11F2B013C0120E030E037
:1017500040E752E4C701B6010E9450209B01AC0152
:10176000C301B2010E94AD216B017C01F801228905
:101770003389448955890E9450206D837E838F83ED
:101780009887A7019601C501B4010E945020F80175
:1017900020A931A942A953A90E94AE212B013C01E5
:1017A000F80140AA51AA62AA73AA24A535A546A5A4
:1017B00057A5C701B6010E94AD21A50194010E9461
:1017C0008C22F801228D338D448D558D0E9450203E
:1017D0004B015C01F80126893789408D518DC30189
:1017E000B2010E9450202D813E814F8158850E9478
:1017F000AE219B01AC01C501B4010E94AE214B0199
:101800005C012B013C01E89477F820E030E04FE7E1
:1018100053E4C301B2010E945B23181634F4412C37
:10182000512C8FE7682E83E4782E20E030E0A90168
:10183000C501B4010E945B23181604F581E090E015
:10184000F80195AB84ABF801A2ACB3AC232809F442
:101850001BC1C301B2010E94FE222B014B01F80102
:1018600024A835A861E08A2D0E944E02411451043B
:10187000A9F460E08A2D0E9420023CC020E030E004
:10188000A901C501B4010E94EA1F87FF03C08FEFC1
:101890009FEFD6CFF80115AA14AAD5CFFFEF4F16A8
:1018A000510411F461E0E6CFF501FF27EC53FD4F41
:1018B000E491E150E23108F0E1C0F0E08827EC5912
:1018C000F34F8F4F0C949121760CAC0CB10CBB0CE8
:1018D000C50C3E0DCF0CD70CDF0CE90CF30CFD0C46
:1018E0000C0D160D3E0D200D2A0D340D84B58068AB
:1018F00084BD47BCF80184AD61E0F1E02F163104EE
:1019000009F4CFC060E02320209409F0CAC00E94EF
:10191000200261E0F80186AD0E942002F801C4A611
:10192000D5A6E6A6F7A628960FB6F894DEBF0FBE9A
:10193000CDBFDF91CF911F910F91FF90EF90DF907E
:10194000CF90BF90AF909F908F907F906F905F905F
:101950004F903F902F90089584B5806284BD48BC1D
:10196000C9CF809180008068809380005092890068
:1019700040928800BFCF8091800080628093800079
:1019800050928B0040928A00B5CF80918000886091
:101990008093800050928D0040928C00ABCF80915C
:1019A000B00080688093B0004092B300A3CF8091D4
:1019B000B00080628093B0004092B4009BCF8091D1
:1019C0009000806880939000509299004092980017
:1019D00091CF8091900080628093900050929B0004
:1019E00040929A0087CF8091900088608093900009
:1019F00050929D0040929C007DCF8091A000806815
:101A00008093A0008091A0008F7B8093A0005092D3
:101A1000A9004092A8006ECF8091A00080628093C0
:101A2000A0005092AB004092AA0064CF8091A00029
:101A300088608093A0005092AD004092AC005ACFD5
:101A4000809120018068809320015092290140926A
:101A5000280150CF80912001806280932001509214
:101A60002B0140922A0146CF80912001886080930B
:101A7000200150922D0140922C013CCF80E8881625
:101A800091040CF00FCFF5CE15AA14AA61E08A2DAF
:101A90000E944E0260E08A2D0E94200260E0F80160
:101AA00084AD0E94200260E035CF85ED8093BC00BC
:101AB0008091400390914103A0914203B091430370
:101AC0000796A11DB11D23E0B695A795979587951B
:101AD0002A95D1F72091BC0024FD03C010923E034B
:101AE00008954091400350914103609142037091E9
:101AF0004303452B462B472B69F30097A105B105FE
:101B000041F02AE22A95F1F700C00197A109B10935
:101B1000E1CF80913F030C9402062F923F924F92A7
:101B20005F926F927F928F929F92AF92BF92CF926D
:101B3000DF92EF92FF920F931F93CF93DF93CDB776
:101B4000DEB762970FB6F894DEBF0FBECDBF9A8B9B
:101B5000898B80EC91EEA4EEB0E0E989FA89808F60
:101B6000918FA28FB38F5F01F4E4AF0EB11CD5014A
:101B70001C92C988DA88B3E4CB0ED11CF60110821E
:101B800089899A8941967C01FDE3EF0EF11C00ECF6
:101B900011EE24EE30E047E16AE30E94B6088823A4
:101BA00009F4EBC1E989FA89E25BFF4F808181701A
:101BB000D6018C93882309F4E0C1E989FA89E15BB5
:101BC000FF4FC080D180DC24CD24DC24E989FA8950
:101BD000EB59FF4FD182C082E989FA89EF5AFF4F52
:101BE00060817181762767277627E989FA89E95923
:101BF000FF4F71836083E989FA89ED5AFF4FE080D6
:101C0000F180FE24EF24FE24E989FA89E759FF4F89
:101C1000F182E082E989FA89EB5AFF4F8080918056
:101C2000982489249824E989FA89EF58FF4F9182F2
:101C30008082E989FA89E95AFF4F20803180322475
:101C400023243224E989FA89E559FF4F3182208221
:101C5000E989FA89E75AFF4F00811181102701278E
:101C60001027E989FA89E359FF4F11830083E98935
:101C7000FA89E55AFF4F80819181F82FE92FFA8385
:101C8000E983E989FA89E159FF4F29813A81318352
:101C90002083E989FA89E35AFF4F80818170D50159
:101CA0008C93E989FA89E25AFF4F208131813E8382
:101CB0002D83E989FA89ED58FF4F31832083E98923
:101CC000FA89E05AFF4F408151815A874987E98953
:101CD000FA89EB58FF4F51834083E989FA89EE591D
:101CE000FF4F808191819E878D87E989FA89E95824
:101CF000FF4F91838083E989FA89EC59FF4F9081E6
:101D0000E989FA89EB5BFF4F81E0292F287093FF67
:101D100080E08083222311F0D5011C92E989FA89A1
:101D200042A053A064A075A05F01F9E7AF0EB11CFB
:101D3000072E000C880B990B0E94F11FA301920142
:101D40000E9450202AE038EE4CE151E40E945020DD
:101D5000D5016D937D938D939C931397A988BA8831
:101D6000BDE7AB0EB11CB601DD0C880B990B0E94D0
:101D7000F11FA30192010E9450202AE038EE4CE1AD
:101D800051E40E945020F501608371838283938324
:101D9000C988DA88F1E8CF0ED11CB701FF0C880B97
:101DA000990B0E94F11FA30192010E9450209058AC
:101DB0002AE038EE4CE151E40E945020D6016D93A8
:101DC0007D938D939C931397E988FA88BDE9EB0E78
:101DD000F11CB401990C880B990B0E94F11F20E0B3
:101DE00030E048EA51E40E94AD212CE53FEE46EA9E
:101DF00053E40E948C2220E030E048EA51E40E9443
:101E0000AE21F7016083718382839383A989BA89A4
:101E10009A968D909D90AD90BC909D977D01B5E870
:101E2000EB0EF11CB801110F880B990B0E94F11FEA
:101E3000A50194010E94502025E33AEF4EE85CE3AF
:101E40000E945020F7016083718382839383098904
:101E50001A8907571F4FB101330C880B990B0E9449
:101E6000F11FA50194010E94502025E33AEF4EE8AE
:101E70005CE30E945020D8016D937D938D939C93D9
:101E8000139709891A8903571F4FE981FA81BF0106
:101E9000FF0F880B990B0E94F11FA50194010E946E
:101EA0005020905825E33AEF4EE85CE30E94502022
:101EB000D8016D937D938D939C931397E989FA894B
:101EC000EC5BFF4F8081882309F457C009891A8988
:101ED0000F561F4FED81FE81BF01FF0F880B990B3D
:101EE0000E94F11F9B01AC01A989BA89D6966D9118
:101EF0007D918D919C91D9970E945020F80160832B
:101F000071838283938309891A890B561F4F298510
:101F10003A85B901330F880B990B0E94F11F9B0181
:101F2000AC01A989BA89DA966D917D918D919C91C8
:101F3000DD970E945020F801608371838283938330
:101F400009891A8907561F4F2D853E85B901330F20
:101F5000880B990B0E94F11F9B01AC01E989FA895A
:101F6000FE9660817181828193810E945020D80108
:101F70006D937D938D939C9313970E947F026B01C9
:101F80007C01E989FA89E955FF4FC082D182E2825A
:101F9000F38209891A8905551F4FE989FA898081D9
:101FA0009181A281B381A7019601281B390B4A0BAD
:101FB0005B0BCA01B9010E94EF1F20E034E244E745
:101FC00059E40E948C22D8016D937D938D939C934C
:101FD0001397E989FA89C082D182E282F382EB57B2
:101FE000FF4F20813181428153812D833E834F8376
:101FF0005887E989FA89E154FF4F2083318342836E
:102000005383E989FA89E757FF4F80819181A28143
:10201000B38189879A87AB87BC87E989FA89ED53B1
:10202000FF4F80839183A283B383E989FA89E357C1
:10203000FF4F20813181428153812D873E874F8719
:10204000588BE989FA89E953FF4F20833183428312
:10205000538323EC35EF4CE151E4E989FA89E758E1
:10206000FF4F60817181828193810E948C222B01BC
:102070003C01E989FA89E553FF4F4082518262822F
:10208000738223EC35EF4CE151E4E989FA89E35896
:10209000FF4F60817181828193810E948C224B016C
:1020A0005C01E989FA89E153FF4F80829182A28223
:1020B000B38223EC35EF4CE151E4E989FA89EF571B
:1020C000FF4F60817181828193810E948C226B011C
:1020D0007C01E989FA89ED52FF4FC082D182E28208
:1020E000F382AC019B01C301B2010E942D22E98958
:1020F000FA89ED55FF4F2081318142815381298337
:102100003A834B835C830E9450202B013C01A989B8
:10211000BA8919964D925D926D927C921C97A70197
:102120009601C501B4010E942D229B01AC01698179
:102130007A818B819C810E9450206B017C01E9890E
:10214000FA89C582D682E782F08684818111BEC079
:10215000E155FF4F80809180A280B380209198024A
:102160003091990240919A0250919B0229833A83BF
:102170004B835C832D813E814F81588569817A81B3
:102180008B819C810E945020A70196010E94AE2164
:10219000A50194010E9450206B017C01A5019401CE
:1021A00060E070E080E89FE30E94AD21A30192010E
:1021B0000E9450209B01AC01C701B6010E94AE21D4
:1021C0006B017C01A989BA891596CD92DD92ED92B9
:1021D000FC921897FD01ED54FF4F80809180A28002
:1021E000B38029853A854B855C8569817A818B81AD
:1021F0009C810E945020A30192010E94AE21A50162
:1022000094010E9450202B013C01A501940160E043
:1022100070E080E89FE30E94AD21A70196010E9433
:1022200050209B01AC01C301B2010E94AE21E9899B
:10223000FA8961877287838794872D853E854F85CC
:10224000588969817A818B819C810E9450206B0121
:102250007C0127E137EB41ED58E30E945B23181620
:1022600054F027E137EB41ED58EBC701B6010E946E
:10227000EA1F87FF12C0A7019601A989BA891D9696
:102280006D917D918D919C9150970E94AD21E9892E
:10229000FA89658776878787908B62960FB6F89460
:1022A000DEBF0FBECDBFDF91CF911F910F91FF9089
:1022B000EF90DF90CF90BF90AF909F908F907F90E6
:1022C0006F905F904F903F902F900895A989BA89A1
:1022D00014961C92E2CF3F924F925F926F927F9240
:1022E0008F929F92AF92BF92CF92DF92EF92FF9226
:1022F0000F931F93CF93DF9300D000D0CDB7DEB7FD
:10230000E091A804F091A90481E084830E949C07D5
:102310002091A8043091A9043A832983C9010E941D
:102320008D0DE981FA81ED55FF4F20813181428188
:102330005381E981FA8165857685878590890E9438
:1023400050206B017C01E091A804F091A9048091D8
:10235000140390911503A0911603B0911703808385
:102360009183A283B383E091A204F091A3046081DE
:102370007181828193810E94FE227A836983E09138
:10238000A404F091A50460817181828193810E94EF
:10239000FE2229813A81032E000C440B550B298320
:1023A0003A834B835C832B01770F6608770885E0BF
:1023B000382E4091A2045091A3045E834D83FA010C
:1023C00080809180A280B38069817A818B819C8199
:1023D0000E94F11F9B01AC01C501B4010E94AD2117
:1023E0004B015C01ED81FE8160897189072E000C33
:1023F000880B990B0E94F11F9B01AC01C501B40130
:102400000E948C22ED81FE8120A531A542A553A515
:102410000E94502020E030E048EC52E40E94EA1F85
:1024200087FFA2C00091A4041091A504F801808048
:102430009180A280B380C301B2010E94F11F9B0171
:10244000AC01C501B4010E94AD214B015C01F80152
:1024500060897189072E000C880B990B0E94F11F6F
:102460009B01AC01C501B4010E948C22F80120A59A
:1024700031A542A553A50E94502020E030E048EC51
:1024800052E40E94EA1F87FF6FC00E949C0767E525
:1024900070E08091A2049091A3040E943B0B67E539
:1024A00070E08091A4049091A5040E943B0B0091E0
:1024B000A6041091A7042091A8043091A9043E839A
:1024C0002D83C9010E948D0DED81FE81ED55FF4FD9
:1024D0002081318142815381ED81FE816585768540
:1024E000878590890E9450209B01AC01C701B601ED
:1024F0000E94AD2120E030E040E05FE30E945020E8
:1025000020E030E0A9010E945B232091A8043091D3
:10251000A9043E832D8387FF5CC08D819E810E942C
:102520008D0DED81FE81ED55FF4F2081318142817E
:102530005381ED81FE8165857685878590890E942E
:1025400050209B01AC01C701B6010E94AD2120E0E3
:1025500030E040E05FE30E94502020E030E040E0C7
:102560005FE30E94AD215BC070E060E08D819E81E1
:102570000E943B0B70E060E08091A4049091A50460
:102580000E943B0B4091A6045091A7044C5F5F4F03
:102590005A834983CA010E940D04BC0189819A8132
:1025A00026960FB6F894DEBF0FBECDBFDF91CF9158
:1025B0001F910F91FF90EF90DF90CF90BF90AF9061
:1025C0009F908F907F906F905F904F903F900C9472
:1025D00077048D819E810E948D0DED81FE81ED55E8
:1025E000FF4F2081318142815381ED81FE816585DC
:1025F0007685878590890E9450209B01AC01C70198
:10260000B6010E94AD2120E030E040E05FE30E948F
:10261000502020E030E040E05FE30E94AE210E94C5
:10262000FE22369E9001379E300D1124B901C8015B
:102630000E94060BBECE3F924F925F926F927F92A6
:102640008F929F92AF92BF92CF92DF92EF92FF92C2
:102650000F931F93CF93DF9300D000D0CDB7DEB799
:10266000E091A804F091A90481E084832091A8045A
:102670003091A9043A832983C9010E948D0DE98113
:10268000FA81ED55FF4F2081318142815381E981EB
:10269000FA8165857685878590890E94502020E0A3
:1026A00030E044EB52E40E94AE214B015C012091EA
:1026B000A8043091A9043A832983C9010E948D0D91
:1026C000E981FA81ED55FF4F2081318142815381AB
:1026D000E981FA8165857685878590890E945020F9
:1026E0006B017C01E091A804F091A904809114038E
:1026F00090911503A0911603B091170380839183E5
:10270000A283B3831E821D8203E210E088E2382E8A
:1027100020E030E040E450E4C501B4010E94AD2166
:10272000A70196010E945B2318168CF020E030E090
:1027300040E450E4C501B4010E94AE219B01AC010C
:10274000C701B6010E945B2318160CF08FC1E09000
:10275000A804F090A904C7010E948D0DF701ED5562
:10276000FF4F2081318142815381F7016585768554
:10277000878590890E9450206B017C010E949C07F4
:1027800087E392E00E946508A7019601C701B601A0
:102790000E946C23882309F449C08DE392E00E94D3
:1027A000650884E392E00E946508A7019601C501CF
:1027B000B4010E94AD212B013C0120E030E0A901D1
:1027C0000E945B2318160CF0CBC020E030E04CE0F8
:1027D00052E4C301B2010E945B2318160CF428C115
:1027E00020E030E040EF51E4C301B2010E945B23DE
:1027F00018160CF422C120E030E040EA51E4C30195
:10280000B2010E945B2318160CF41CC120E030E0DA
:1028100040E251E4C301B2010E945B232FE030E0AB
:1028200018160CF40CC1EAE0F0E004C126013701EF
:10283000E89477F82FEF3FEF4FE75FE7C301B2016E
:102840000E946C2381110DC02FEF3FEF4FE75FE730
:10285000C301B2010E94EA1F18161CF481E492E041
:102860009ECF2FEF3FEF4FE75FE4C701B6010E9415
:102870005B2318161CF485E492E091CF2FEF3FEF15
:102880004FE75FECC701B6010E94EA1F87FDF3CF57
:1028900020E030E0A901C701B6010E94EA1F87FFCE
:1028A0005CC06DE288E693E00E946F03C701B60149
:1028B00090582AE037ED43EA5BE30E94AE212B01FA
:1028C0003C010E94052369837A838B839C830E9449
:1028D000EF1F9B01AC01C301B2010E94AD212B018E
:1028E0003C014AE069817A818B819C810E94720857
:1028F0006EE288E693E00E946F0320E030E040E261
:1029000051E4C301B2010E94502069837A838B8312
:102910009C830E9405232B01712C612C4AE0C3018A
:10292000B2010E947208C301B2010E94EF1F9B0115
:10293000AC0169817A818B819C810E94AD2120E06C
:1029400030E040E251E40E9450200E94052390E0D4
:1029500080E04AE00E94720824CFC701B601A9CFE7
:1029600020E030E0A901C301B2010E94EA1F87FF05
:102970002CC020E030E04CE052ECC301B2010E94D8
:10298000EA1F87FD62C020E030E040EF51ECC30158
:10299000B2010E94EA1F87FD5BC020E030E040EA00
:1029A00051ECC301B2010E94EA1F87FD54C020E030
:1029B00030E040E251ECC301B2010E94EA1F87FF00
:1029C0004DC081EF9FEF9E838D836D817E818091CD
:1029D000A6049091A7040E94060B2D813E8137FF2B
:1029E00003C0319521953109329EC001339E900D6F
:1029F0001124B8010E947D212B0130E5430E511CAA
:102A00003B0186E4680E711C8091A2049091A3049E
:102A1000ED81FE811E161F0624F5B2010E943B0BBC
:102A2000B3018091A4049091A5040E943B0B70CE49
:102A3000E3E2F0E0FE83ED83C8CF2EE130E03E8399
:102A40002D83C3CF84E190E0BECF2DED3FEFF7CFD4
:102A500082EE9FEFB8CFECEEFFEFECCF26EF3FEF2B
:102A6000EECFB3010E943B0BB201DBCF8091A604F5
:102A70009091A704FC016281738104960E947704FF
:102A800070E060E08091A4049091A5040E943B0B4B
:102A900070E060E08091A2049091A30426960FB6A6
:102AA000F894DEBF0FBECDBFDF91CF911F910F9184
:102AB000FF90EF90DF90CF90BF90AF909F908F905E
:102AC0007F906F905F904F903F900C943B0B1F92C4
:102AD0000F920FB60F9211242F933F938F939F93D2
:102AE000AF93BF9380910C0390910D03A0910E03BF
:102AF000B0910F0330910B0323E0230F2D3758F5CE
:102B00000196A11DB11D20930B0380930C0390939C
:102B10000D03A0930E03B0930F03809110039091C7
:102B20001103A0911203B09113030196A11DB11DD1
:102B30008093100390931103A0931203B093130397
:102B4000BF91AF919F918F913F912F910F900FBEA9
:102B50000F901F90189526E8230F0296A11DB11D16
:102B6000D2CF1F920F920FB60F9211240BB60F9275
:102B70002F933F934F935F936F937F938F939F9385
:102B8000AF93BF93EF93FF93E0910E02F0910F028A
:102B90001995FF91EF91BF91AF919F918F917F9187
:102BA0006F915F914F913F912F910F900BBE0F90BE
:102BB0000FBE0F901F9018951F920F920FB60F9295
:102BC00011240BB60F922F933F934F935F936F9304
:102BD0007F938F939F93AF93BF93EF93FF93E09176
:102BE0000C02F0910D021995FF91EF91BF91AF91F9
:102BF0009F918F917F916F915F914F913F912F9115
:102C00000F900BBE0F900FBE0F901F9018951F9244
:102C10000F920FB60F9211240BB60F922F933F9382
:102C20004F935F936F937F938F939F93AF93BF93D4
:102C3000EF93FF93E0910202F09103021995FF9147
:102C4000EF91BF91AF919F918F917F916F915F9124
:102C50004F913F912F910F900BBE0F900FBE0F9091
:102C60001F9018951F920F920FB60F9211240BB65A
:102C70000F922F933F934F935F936F937F938F9315
:102C80009F93AF93BF93EF93FF93E0910002F09176
:102C900001021995FF91EF91BF91AF919F918F9193
:102CA0007F916F915F914F913F912F910F900BBE4C
:102CB0000F900FBE0F901F9018951F920F920FB696
:102CC0000F9211240BB60F922F933F934F935F9364
:102CD0006F937F938F939F93AF93BF93EF93FF93E4
:102CE000E0910A02F0910B021995FF91EF91BF91CB
:102CF000AF919F918F917F916F915F914F913F9194
:102D00002F910F900BBE0F900FBE0F901F90189534
:102D10001F920F920FB60F9211240BB60F922F93A2
:102D20003F934F935F936F937F938F939F93AF9353
:102D3000BF93EF93FF93E0910802F0910902199578
:102D4000FF91EF91BF91AF919F918F917F916F9183
:102D50005F914F913F912F910F900BBE0F900FBE3F
:102D60000F901F9018951F920F920FB60F9211247B
:102D70000BB60F922F933F934F935F936F937F9375
:102D80008F939F93AF93BF93EF93FF93E0910602CE
:102D9000F09107021995FF91EF91BF91AF919F912B
:102DA0008F917F916F915F914F913F912F910F90F4
:102DB0000BBE0F900FBE0F901F9018951F920F9291
:102DC0000FB60F9211240BB60F922F933F934F9390
:102DD0005F936F937F938F939F93AF93BF93EF9383
:102DE000FF93E0910402F09105021995FF91EF9194
:102DF000BF91AF919F918F917F916F915F914F9113
:102E00003F912F910F900BBE0F900FBE0F901F9010
:102E100018951F920F920FB60F9211240BB60F92B6
:102E20002F933F934F935F936F937F938F939F93D2
:102E3000AF93BF93EF93FF9388E693E00E944D0317
:102E4000FF91EF91BF91AF919F918F917F916F9182
:102E50005F914F913F912F910F900BBE0F900FBE3E
:102E60000F901F9018951F920F920FB60F9211247A
:102E70000BB60F922F938F939F93EF93FF93E09155
:102E80007803F09179038081E0917E03F0917F03D4
:102E900082FD1DC09081809181038F5F8F7320918F
:102EA0008203821741F0E0918103F0E0E859FC4F82
:102EB000958F80938103FF91EF919F918F912F9137
:102EC0000F900BBE0F900FBE0F901F901895808132
:102ED000F2CF1F920F920FB60F9211240BB60F92E2
:102EE0002F933F934F935F936F937F938F939F9312
:102EF000AF93BF93EF93FF9348E251E064E271E038
:102F000090E080E00E94F304FF91EF91BF91AF91B8
:102F10009F918F917F916F915F914F913F912F91F1
:102F20000F900BBE0F900FBE0F901F9018951F9221
:102F30000F920FB60F9211240BB60F922F933F935F
:102F40004F935F936F937F938F939F93AF93BF93B1
:102F5000EF93FF9348EA50E064EA70E083E090E08A
:102F60000E94F304FF91EF91BF91AF919F918F91D8
:102F70007F916F915F914F913F912F910F900BBE79
:102F80000F900FBE0F901F9018951F920F920FB6C3
:102F90000F9211240BB60F922F933F934F935F9391
:102FA0006F937F938F939F93AF93BF93EF93FF9311
:102FB00048E950E064E970E082E090E00E94F304A8
:102FC000FF91EF91BF91AF919F918F917F916F9101
:102FD0005F914F913F912F910F900BBE0F900FBEBD
:102FE0000F901F9018951F920F920FB60F921124F9
:102FF0000BB60F922F933F934F935F936F937F93F3
:103000008F939F93AF93BF93EF93FF9348E850E064
:1030100064E870E081E090E00E94F304FF91EF919A
:10302000BF91AF919F918F917F916F915F914F91E0
:103030003F912F910F900BBE0F900FBE0F901F90DE
:1030400018951F920F920FB60F9211240BB60F9284
:103050002F933F934F935F936F937F938F939F93A0
:10306000AF93BF93EF93FF938091B900887F803631
:1030700009F44DC008F040C0883209F4A9C028F511
:10308000803109F49DC0C8F4882309F4FBC088305E
:1030900009F496C0FF91EF91BF91AF919F918F91ED
:1030A0007F916F915F914F913F912F910F900BBE48
:1030B0000F900FBE0F901F901895883109F488C0AB
:1030C000803241F780933C0314C0803409F49DC0E2
:1030D00040F48033B9F38833E9F680933C0385EC00
:1030E000B0C0803509F485C0883509F496C08834AD
:1030F00089F60E94550DCECF883909F48CC038F579
:10310000883729F050F4883611F0803719F683E0BB
:1031100080933E031092DF0257C0883809F47BC0C9
:10312000803919F0803809F0B5CF8091DF02803204
:1031300008F071C0E091DF0281E08E0F8093DF0222
:103140008091BB00F0E0E154FD4F80833DC0803BA7
:1031500039F0E0F4803A09F479C0883A09F09ACF5E
:1031600084E080933E031092BE021092BD02E09173
:103170000703F091080319958091BD0281110FC0DA
:1031800081E08093BD0210929D0209C0803C09F449
:10319000A6CF883C09F4A3CF883B09F07BCFE09110
:1031A000BE0281E08E0F8093BE02F0E0E356FD4F39
:1031B00080818093BB009091BE028091BD0229C0A6
:1031C000809119038093BB0085EC8093BC0062CF93
:1031D00090913B0380913A03981758F5E0913B0397
:1031E00081E08E0F80933B03F0E0E65EFC4F808130
:1031F000E9CFE0913B0381E08E0F80933B03809108
:10320000BB00F0E0E65EFC4F808390913B03809131
:103210003A039817C8F285E8D8CFE0913B0381E0E4
:103220008E0F80933B038091BB00F0E0E65EFC4F85
:10323000808380913D0381115CCF81E080931803EE
:1032400084EA8093BC0010923E0324CF85EC8093E7
:10325000BC0010923E038091DF02803230F4E09196
:10326000DF02F0E0E154FD4F10826091DF0270E078
:10327000E0910503F09106038FEB92E0199510920F
:10328000DF0208CF10923C0334CF4F925F926F92CF
:103290007F928F929F92AF92BF92CF92DF92EF92E6
:1032A000FF92CF93DF9310926B0310926A0388EE24
:1032B00093E0A0E0B0E080936C0390936D03A09343
:1032C0006E03B0936F0324E132E0309369032093DF
:1032D000680325EC30E0309375032093740324ECED
:1032E00030E0309377032093760320EC30E0309386
:1032F00079032093780321EC30E030937B03209313
:103300007A0322EC30E030937D0320937C0326EC9B
:1033100030E030937F0320937E031092810310925C
:103320008203109283031092840310920804109277
:1033300007048093090490930A04A0930B04B093AC
:103340000C0486E292E090930604809305041092A8
:10335000E0051092E1051092E2051092E30510924B
:10336000E4051092E5051092E6051092E70510922B
:10337000E8051092E9051092EA051092EB05412C40
:10338000512C3EEA632E32E4732E4092FC0550929B
:10339000FD056092FE057092FF05812C912C40EC9A
:1033A000A42E40E4B42E8092000690920106A092D2
:1033B0000206B092030654EEC52E5BECD52E56E104
:1033C000E52E52E4F52EC0920406D0920506E09256
:1033D0000606F0920706109208061092090610924F
:1033E0000A0610920B0610920C0610920D0610920F
:1033F0000E0610920F06C1E0D0E0D0931106C093E4
:10340000100682E190E0909313068093120683E108
:1034100090E0909315068093140685E090E09093D9
:1034200017068093160686E090E090931906809325
:10343000180687E090E090931B0680931A0660E0E0
:1034400082E10E944E0260E083E10E944E0261E050
:1034500085E00E944E0261E086E00E944E0261E03B
:1034600087E00E944E021092A0051092A1051092D2
:10347000A2051092A3051092A4051092A505109222
:10348000A6051092A7051092A8051092A905109202
:10349000AA051092AB054092BC055092BD05609202
:1034A000BE057092BF058092C0059092C105A092A2
:1034B000C205B092C305C092C405D092C505E09282
:1034C000C605F092C7051092C8051092C905109262
:1034D000CA051092CB051092CC051092CD05109222
:1034E000CE051092CF05D093D105C093D00582E0D0
:1034F00090E09093D3058093D20583E090E0909381
:10350000D5058093D4058BE090E09093D705809308
:10351000D6058DE090E09093D9058093D8058CE096
:1035200090E09093DB058093DA0560E082E00E94F2
:103530004E0260E083E00E944E0261E08BE00E9458
:103540004E0261E08DE00E944E0261E08CE00E943C
:103550004E028AE590E090939805809397058091BC
:10356000A104803308F0BAC091E0980F9093A104B1
:103570008093990590E0FC01EE0FFF1FE80FF91F03
:10358000EF5EFB4F88EB9BE09283818389E090E0C4
:1035900090939605809395051092BE041092BF04F7
:1035A0001092C0041092C10481E08093C204109272
:1035B000C3041092C4041092C5041092C604109261
:1035C000C7041092C8041092C9041092CA04109241
:1035D000CB041092CC041092CD041092CE048CE94E
:1035E00090E3A5E6B2E48093610590936205A09311
:1035F0006305B093640586E696E6A6EEBEE3809387
:103600006D0590936E05A0936F05B0937005809340
:10361000710590937205A0937305B0937405809320
:10362000750590937605A0937705B0937805109271
:10363000790510927A0510927B0510927C058CED2D
:1036400095E09093A3048093A2048CE995E0909375
:10365000A5048093A40485E995E09093A704809342
:10366000A6048EEB94E09093A9048093A804109292
:10367000AA041092AB041092AC041092AD04109204
:10368000AE041092AF041092B0041092B1041092E4
:10369000B2041092B3041092B4041092B5041092C4
:1036A000B6041092B7041092B8041092B9041092A4
:1036B000BA041092BB041092BC041092BD04DF91B6
:1036C000CF91FF90EF90DF90CF90BF90AF909F9001
:1036D0008F907F906F905F904F9008958FEF8093C1
:1036E000990554CF789484B5826084BD84B5816097
:1036F00084BD85B5826085BD85B5816085BD8091BD
:103700006E00816080936E00109281008091810034
:10371000826080938100809181008160809381002C
:10372000809180008160809380008091B1008460EE
:103730008093B1008091B00081608093B00080914F
:1037400091008260809391008091910081608093CC
:103750009100809190008160809390008091A10001
:1037600082608093A1008091A10081608093A1007C
:103770008091A00081608093A000809121018260EF
:1037800080932101809121018160809321018091AA
:10379000200181608093200180917A008460809371
:1037A0007A0080917A00826080937A0080917A001A
:1037B000816080937A0080917A00806880937A009B
:1037C0001092C100E0917803F091790382E0808348
:1037D000E0917403F09175031082E0917603F0910B
:1037E000770380E1808310928003E0917C03F09165
:1037F0007D0386E08083E0917A03F0917B038081F2
:1038000080618083E0917A03F0917B0380818860FE
:103810008083E0917A03F0917B03808180688083CC
:10382000E0917A03F0917B0380818F7D80831092F9
:103830000A031092090310924503109267030E9435
:10384000E40586ED92E0909308038093070387EDEB
:1038500092E090930603809305038CE08093B80078
:1038600085E094E09093D0048093CF0488E6809321
:10387000D30481E08093D40480E492E4AFE0B0E02C
:103880008093D6049093D704A093D804B093D9041E
:1038900061E08BE60E94160A882309F4F5C160E214
:1038A0008AE60E94160A882309F4EEC16DE084E2DC
:1038B0000E94160A882309F4E7C160E08AE00E94AA
:1038C000D00A60E88BE60E94160A61E070E080E0B2
:1038D00090E00E94A40261E08BE00E94D00A61E0C7
:1038E0008BE60E94160A882309F4CEC10091D60403
:1038F0001091D7042091D8043091D90450E0E52EDE
:1039000055E0F52E41E065E78FEC94E00E94B608A3
:10391000882309F4B9C1809100058D7F813709F0B2
:10392000B3C160E28AE60E94160A882309F4ACC19A
:103930006DE084E20E94160A882309F4A5C1A7015C
:1039400061E080E00E94990A882309F49DC180917A
:103950000005883409F098C160E08AE00E94D00A2E
:10396000882309F491C164E670E080E090E00E9451
:10397000A4026FE08AE00E94D00A882309F484C17F
:1039800064E670E080E090E00E94A40241EF54E021
:1039900063E080E10E94990A882309F475C160916F
:1039A000F10470E090E080E00E94EF1F20E030E042
:1039B00040E053E40E94AD2120E030E040E85BE3CA
:1039C0000E94502020E030E040E85FE30E94AE21FA
:1039D00020E030E849E955E40E94502020E030EF33
:1039E0004FEF56E40E948C226093F4047093F50428
:1039F0008093F6049093F7046091F20470E090E0F5
:103A000080E00E94EF1F20E030E040E053E40E949D
:103A1000AD2120E030E040E85BE30E94502020E050
:103A200030E040E85FE30E94AE2120E030E849E961
:103A300055E40E94502020E030EF4FEF56E40E9402
:103A40008C226093F8047093F9048093FA049093A5
:103A5000FB046091F30470E090E080E00E94EF1FAF
:103A600020E030E040E053E40E94AD2120E030E06F
:103A700040E85BE30E94502020E030E040E85FE354
:103A80000E94AE2120E030E849E955E40E94502030
:103A900020E030EF4FEF56E40E948C226093FC044C
:103AA0007093FD048093FE049093FF0460E08AE02D
:103AB0000E94D00A882309F4E7C066E18AE00E94E8
:103AC000D00A882309F4E0C064E670E080E090E06A
:103AD0000E94A40261E08BE60E94160A882309F482
:103AE000D3C040E4C42E42E4D42E4FE0E42EF12CA7
:103AF000C092D604D092D704E092D804F092D904B0
:103B0000C8E1C093DB0480E890E0A0E0BAE38093D2
:103B1000E4049093E504A093E604B093E70468E11D
:103B20008CE10E94160A882309F4AEC08091DB0460
:103B30008093DA048091E4049091E504A091E60476
:103B4000B091E7048093E0049093E104A093E20431
:103B5000B093E304C092D604D092D704E092D80484
:103B6000F092D904C093DD048AEF90E0AAE7BDE3A8
:103B70008093EC049093ED04A093EE04B093EF04D3
:103B800068E18BE10E94160A882309F47DC08091C8
:103B9000DD048093DC048091EC049091ED04A0910D
:103BA000EE04B091EF048093E8049093E904A093AD
:103BB000EA04B093EB04C092D604D092D704E0920A
:103BC000D804F092D90481E08093DF0461E08DE1B4
:103BD0000E94160A882309F457C06091DF048AE125
:103BE0000E94160A882309F44FC08091DF04809355
:103BF000DE04C092D604D092D704E092D804F092AA
:103C0000D90463E189E10E94160A8823E9F160E0A2
:103C10008AE00E94D00A64E670E080E090E00E94B2
:103C2000A40266E18AE00E94D00A882369F164E672
:103C300070E080E090E00E94A40244E055E068E07B
:103C400082E00E94990A8823F9F060E089E10E94ED
:103C5000160A8823C9F01092F004C092D604D092BC
:103C6000D704E092D804F092D90463E189E10E947C
:103C7000160A811112C08EE792E00E94650884E363
:103C800092E00E946508FFCF89E492E00E946508F7
:103C900084E392E00E946508FFCF60E08AE00E9422
:103CA000D00A64E670E080E090E00E94A40262E145
:103CB0008AE00E94D00A8823F1F264E670E080E096
:103CC00090E00E94A40244E055E068E082E00E9497
:103CD000990A882381F263E189E10E94160A882308
:103CE00051F283E18093F004C092D604D092D704BD
:103CF000E092D804F092D9041092DD048AEF90E0AB
:103D0000AAEFBBE38093EC049093ED04A093EE0440
:103D1000B093EF0460E08BE10E94160A811119C193
:103D200080E492E4AFE0B0E08093D6049093D704AF
:103D3000A093D804B093D9041092DB0480E890E0FB
:103D4000A0E8B8E38093E4049093E504A093E6042C
:103D5000B093E70460E08CE10E94160A8823A1F08A
:103D60008091DB048093DA048091E4049091E5046F
:103D7000A091E604B091E7048093E0049093E104FD
:103D8000A093E204B093E304C09195058091990556
:103D9000803308F051C061E08C2F0E944E022091C8
:103DA0009905822F90E0FC01EE0FFF1FE80FF91F2D
:103DB000EF5EFB4FCF738081807C8C2B80831092D1
:103DC0009A0510929B053CE0822F632F0E9471217F
:103DD000839FB001112450E040E0DB01A40FB51F28
:103DE000FD01EE0FFF1FEA0FFB1FEF5EFB4F9081FF
:103DF00096FD17C04F5F5F4F4C30510571F7813012
:103E000009F0BCC01092800082E080938100109283
:103E1000850010928400B19A80916F008260809337
:103E20006F0030E0F901EE0FFF1FE20FF31FEF5EAE
:103E3000FB4F808180648083609197057091980525
:103E400089E995E00E94770484E398E09093ED057A
:103E50008093EC0546E656E666EE7FE34093EE057A
:103E60005093EF056093F0057093F10546E656E632
:103E700066EA7FE34093F2055093F3056093F405FF
:103E80007093F5051092F6051092F7051092F8055B
:103E90001092F9059093AD058093AC0580E090E019
:103EA000A0E4B0E48093AE059093AF05A093B00575
:103EB000B093B10580E090E0A0E0B0E48093B2055B
:103EC0009093B305A093B405B093B5051092B605D1
:103ED0001092B7051092B8051092B9058EE398E0DC
:103EE00090930B0280930A0280916900806C80930A
:103EF0006900EB9A82E498E09093010280930002BB
:103F000080916A00836080936A00EC9A0E946B1132
:103F100068EE73E080E090E00E94A4020E941B1310
:103F200068EE73E080E090E00E94A4020E946B11B2
:103F300068EE73E080E090E00E94A4020E941B13F0
:103F400068EE73E080E090E00E94A4020E94DC032F
:103F5000FDCF8091DD048093DC048091EC0490918E
:103F6000ED04A091EE04B091EF048093E8049093E7
:103F7000E904A093EA04B093EB04D2CE823061F45A
:103F800010929000809391001092950010929400EE
:103F900088BB8093710045CF833069F41092A000F4
:103FA00082E08093A1001092A5001092A40089BB2A
:103FB0008093720036CF811134CF1092200182E0BD
:103FC0008093210110922501109224018ABB8093D5
:103FD000730027CF0E942C2008F481E00895E89414
:103FE00009C097FB3EF490958095709561957F4F41
:103FF0008F4F9F4F9923A9F0F92F96E9BB279395EF
:10400000F695879577956795B795F111F8CFFAF4FE
:10401000BB0F11F460FF1BC06F5F7F4F8F4F9F4F2F
:1040200016C0882311F096E911C0772321F09EE88D
:10403000872F762F05C0662371F096E8862F70E0F3
:1040400060E02AF09A95660F771F881FDAF7880FCD
:104050009695879597F90895990F0008550FAA0B23
:10406000E0E8FEEF16161706E807F907C0F012168B
:104070001306E407F50798F0621B730B840B950B8E
:1040800039F40A2661F0232B242B252B21F40895E3
:104090000A2609F4A140A6958FEF811D811D089580
:1040A0000E9463200C94D4200E94C62038F00E9405
:1040B000CD2020F0952311F00C94BD200C94C3204A
:1040C00011240C9408210E94E52070F3959FC1F300
:1040D000950F50E0551F629FF001729FBB27F00DB6
:1040E000B11D639FAA27F00DB11DAA1F649F66270B
:1040F000B00DA11D661F829F2227B00DA11D621F5A
:10410000739FB00DA11D621F839FA00D611D221F13
:10411000749F3327A00D611D231F849F600D211DF7
:10412000822F762F6A2F11249F5750409AF0F1F07A
:1041300088234AF0EE0FFF1FBB1F661F771F881FE3
:1041400091505040A9F79E3F510580F00C94BD203E
:104150000C9408215F3FE4F3983ED4F3869577955D
:104160006795B795F795E7959F5FC1F7FE2B880F89
:10417000911D9695879597F9089597F99F6780E81F
:1041800070E060E008959FEF80EC089500240A94A9
:104190001616170618060906089500240A94121622
:1041A0001306140605060895092E0394000C11F455
:1041B000882352F0BB0F40F4BF2B11F460FF04C002
:1041C0006F5F7F4F8F4F9F4F089557FD9058440F5B
:1041D000551F59F05F3F71F04795880F97FB991F66
:1041E00061F09F3F79F08795089512161306140623
:1041F000551FF2CF4695F1DF08C0161617061806B0
:10420000991FF1CF86957105610508940895E8948A
:10421000BB2766277727CB0197F90895052E97FBD3
:104220001EF400940E94252157FD07D00E944021D2
:1042300007FC03D04EF40C94252150954095309501
:1042400021953F4F4F4F5F4F089590958095709502
:1042500061957F4F8F4F9F4F08950E946221A59FC8
:10426000900DB49F900DA49F800D911D1124089571
:10427000B7FF0C942D210E942D21821B930B0895D2
:10428000A1E21A2EAA1BBB1BFD010DC0AA1FBB1F5A
:10429000EE1FFF1FA217B307E407F50720F0A21BCC
:1042A000B30BE40BF50B661F771F881F991F1A9439
:1042B00069F760957095809590959B01AC01BD0163
:1042C000CF010895A29FB001B39FC001A39F700DBD
:1042D000811D1124911DB29F700D811D1124911D0E
:1042E0000895991B79E004C0991F961708F0961B52
:1042F000881F7A95C9F78095089597FB072E16F4C5
:10430000009407D077FD09D00E94992107FC05D0C1
:104310003EF4909581959F4F0895709561957F4FDC
:104320000895EE0FFF1F881F8BBF0790F691E02DB9
:104330001994AA1BBB1B51E107C0AA1FBB1FA617DC
:10434000B70710F0A61BB70B881F991F5A95A9F73E
:1043500080959095BC01CD0108955058BB27AA27A0
:104360000E94C5210C94D4200E94C62038F00E94DF
:10437000CD2020F039F49F3F19F426F40C94C3208B
:104380000EF4E095E7FB0C94BD20E92F0E94E52098
:1043900058F3BA17620773078407950720F079F47A
:1043A000A6F50C9407210EF4E0950B2EBA2FA02D44
:1043B0000B01B90190010C01CA01A0011124FF27D2
:1043C000591B99F0593F50F4503E68F11A16F040CD
:1043D000A22F232F342F4427585FF3CF46953795CC
:1043E0002795A795F0405395C9F77EF41F16BA0B91
:1043F000620B730B840BBAF09150A1F0FF0FBB1F3F
:10440000661F771F881FC2F70EC0BA0F621F731F87
:10441000841F48F4879577956795B795F7959E3FE4
:1044200008F0B0CF9395880F08F09927EE0F979575
:10443000879508950E94C62060F080E891E009F415
:104440009EEF0E94CD2028F040E851E071F45EEF2D
:104450000CC00C94C3200C940721E92FE0780E9433
:10446000E52040F3092E052AB1F326173707480740
:10447000590738F00E2E07F8E02569F0E025E064D2
:104480000AC0EF6307F8009407FADB01B9019D0148
:10449000DC01CA01AD01EF930E94A3220E94D42047
:1044A0000E945D225F91552339F02BED3FE049E4F6
:1044B00050FD49EC0C94AE210895DF93DD27B92F10
:1044C000BF7740E85FE31616170648075B0718F446
:1044D000D92F0E9460239F938F937F936F930E94A5
:1044E0006823E4EEF0E00E9434230E94D4202F9150
:1044F0003F914F915F910E946320DD2351F09058CE
:10450000A2EA2AED3FE049EC5FE3D0785D270E9404
:10451000C521DF910C94D4200E94A0220C94D420B9
:104520000E94CD2058F00E94C62040F029F45F3F41
:1045300029F00C94BD2051110C9408210C94C32037
:104540000E94E52068F39923B1F3552391F3951B5D
:10455000550BBB27AA2762177307840738F09F5FA4
:104560005F4F220F331F441FAA1FA9F335D00E2E11
:104570003AF0E0E832D091505040E695001CCAF77E
:104580002BD0FE2F29D0660F771F881FBB1F261741
:1045900037074807AB07B0E809F0BB0B802DBF0118
:1045A000FF2793585F4F3AF09E3F510578F00C94E7
:1045B000BD200C9408215F3FE4F3983ED4F3869528
:1045C00077956795B795F7959F5FC9F7880F911D08
:1045D0009695879597F90895E1E0660F771F881FF4
:1045E000BB1F621773078407BA0720F0621B730BA7
:1045F000840BBA0BEE1F88F7E09508950E940523FF
:104600006894B1110C94082108950E94ED2088F05F
:104610009F5798F0B92F9927B751B0F0E1F0660F86
:10462000771F881F991F1AF0BA95C9F714C0B130C7
:1046300091F00E940721B1E008950C940721672FA3
:10464000782F8827B85F39F0B93FCCF386957795F6
:104650006795B395D9F73EF49095809570956195DF
:104660007F4F8F4F9F4F0895DF93CF931F930F93EB
:10467000FF92EF92DF927B018C01689406C0DA2EE4
:10468000EF010E946320FE01E894A59125913591E8
:1046900045915591A6F3EF010E94C521FE019701B6
:1046A000A801DA9469F7DF90EF90FF900F911F91C6
:1046B000CF91DF9108950E942C2008F48FEF089588
:1046C0009B01AC0160E070E080E89FE30C948C22D9
:1046D0009B01AC010C9450200E942C20880B990B5C
:0646E0000895F894FFCFDD
:1046E600D802D802D802D802D802D802D802D802F4
:1046F600000000006F03D9020603BC03370315034D
:104706002903000000006A073D07990713073607CB
:10471600230714070D0A005961773A20006E616E6F
:1047260000696E66006F7666004572726F20616F73
:1047360020696E696369616C697A617220612063C0
:104746006F6D756E696361C3A7C3A36F20636F6DD9
:10475600206F2073656E736F7220696D75004572E8
:10476600726F20616F20636F6E6669677572617222
:08477600206F205352440000A3
:00000001FF
